{
	"voter.sol": {
		"Voter": {
			"abi": [
				{
					"constant": false,
					"inputs": [
						{
							"name": "option",
							"type": "uint256"
						}
					],
					"name": "vote",
					"outputs": [],
					"payable": false,
					"stateMutability": "nonpayable",
					"type": "function"
				},
				{
					"constant": true,
					"inputs": [],
					"name": "getVotes",
					"outputs": [
						{
							"name": "",
							"type": "uint256[]"
						}
					],
					"payable": false,
					"stateMutability": "view",
					"type": "function"
				},
				{
					"constant": true,
					"inputs": [
						{
							"name": "",
							"type": "uint256"
						}
					],
					"name": "options",
					"outputs": [
						{
							"name": "",
							"type": "string"
						}
					],
					"payable": false,
					"stateMutability": "view",
					"type": "function"
				},
				{
					"constant": true,
					"inputs": [
						{
							"name": "",
							"type": "uint256"
						}
					],
					"name": "votes",
					"outputs": [
						{
							"name": "",
							"type": "uint256"
						}
					],
					"payable": false,
					"stateMutability": "view",
					"type": "function"
				},
				{
					"constant": true,
					"inputs": [],
					"name": "getOptions",
					"outputs": [
						{
							"name": "",
							"type": "string[]"
						}
					],
					"payable": false,
					"stateMutability": "view",
					"type": "function"
				},
				{
					"inputs": [
						{
							"name": "_options",
							"type": "string[]"
						}
					],
					"payable": false,
					"stateMutability": "nonpayable",
					"type": "constructor"
				}
			],
			"devdoc": {
				"methods": {}
			},
			"evm": {
				"assembly": "    /* \"voter.sol\":62:589  contract Voter{\r... */\n  mstore(0x40, 0x80)\n    /* \"voter.sol\":141:255  constructor(string[] _options) public{\r... */\n  callvalue\n    /* \"--CODEGEN--\":8:17   */\n  dup1\n    /* \"--CODEGEN--\":5:7   */\n  iszero\n  tag_1\n  jumpi\n    /* \"--CODEGEN--\":30:31   */\n  0x0\n    /* \"--CODEGEN--\":27:28   */\n  dup1\n    /* \"--CODEGEN--\":20:32   */\n  revert\n    /* \"--CODEGEN--\":5:7   */\ntag_1:\n    /* \"voter.sol\":141:255  constructor(string[] _options) public{\r... */\n  pop\n  mload(0x40)\n  sub(codesize, bytecodeSize)\n  dup1\n  bytecodeSize\n  dup4\n  codecopy\n  dup2\n  add\n  dup1\n  0x40\n  mstore\n  tag_2\n  swap2\n  swap1\n  dup2\n  add\n  swap1\n  jump(tag_3)\ntag_2:\n    /* \"voter.sol\":199:207  _options */\n  dup1\n    /* \"voter.sol\":189:196  options */\n  0x1\n    /* \"voter.sol\":189:207  options = _options */\n  swap1\n  dup1\n  mload\n  swap1\n  0x20\n  add\n  swap1\n  tag_6\n  swap3\n  swap2\n  swap1\n  jump\t// in(tag_7)\ntag_6:\n  pop\n    /* \"voter.sol\":233:240  options */\n  0x1\n    /* \"voter.sol\":233:247  options.length */\n  dup1\n  sload\n  swap1\n  pop\n    /* \"voter.sol\":218:223  votes */\n  0x0\n    /* \"voter.sol\":218:247  votes.length = options.length */\n  dup2\n  tag_8\n  swap2\n  swap1\n  jump\t// in(tag_9)\ntag_8:\n  pop\n    /* \"voter.sol\":141:255  constructor(string[] _options) public{\r... */\n  pop\n    /* \"voter.sol\":62:589  contract Voter{\r... */\n  jump(tag_10)\ntag_7:\n  dup3\n  dup1\n  sload\n  dup3\n  dup3\n  sstore\n  swap1\n  0x0\n  mstore\n  keccak256(0x0, 0x20)\n  swap1\n  dup2\n  add\n  swap3\n  dup3\n  iszero\n  tag_11\n  jumpi\n  swap2\n  0x20\n  mul\n  dup3\n  add\ntag_12:\n  dup3\n  dup2\n  gt\n  iszero\n  tag_13\n  jumpi\n  dup3\n  mload\n  dup3\n  swap1\n  dup1\n  mload\n  swap1\n  0x20\n  add\n  swap1\n  tag_14\n  swap3\n  swap2\n  swap1\n  jump\t// in(tag_15)\ntag_14:\n  pop\n  swap2\n  0x20\n  add\n  swap2\n  swap1\n  0x1\n  add\n  swap1\n  jump(tag_12)\ntag_13:\ntag_11:\n  pop\n  swap1\n  pop\n  tag_16\n  swap2\n  swap1\n  jump\t// in(tag_17)\ntag_16:\n  pop\n  swap1\n  jump\t// out\ntag_9:\n  dup2\n  sload\n  dup2\n  dup4\n  sstore\n  dup2\n  dup2\n  gt\n  iszero\n  tag_18\n  jumpi\n  dup2\n  dup4\n  0x0\n  mstore\n  keccak256(0x0, 0x20)\n  swap2\n  dup3\n  add\n  swap2\n  add\n  tag_19\n  swap2\n  swap1\n  jump\t// in(tag_20)\ntag_19:\ntag_18:\n  pop\n  pop\n  pop\n  jump\t// out\ntag_15:\n  dup3\n  dup1\n  sload\n  0x1\n  dup2\n  0x1\n  and\n  iszero\n  0x100\n  mul\n  sub\n  and\n  0x2\n  swap1\n  div\n  swap1\n  0x0\n  mstore\n  keccak256(0x0, 0x20)\n  swap1\n  0x1f\n  add\n  0x20\n  swap1\n  div\n  dup2\n  add\n  swap3\n  dup3\n  0x1f\n  lt\n  tag_22\n  jumpi\n  dup1\n  mload\n  not(0xff)\n  and\n  dup4\n  dup1\n  add\n  or\n  dup6\n  sstore\n  jump(tag_21)\ntag_22:\n  dup3\n  dup1\n  add\n  0x1\n  add\n  dup6\n  sstore\n  dup3\n  iszero\n  tag_21\n  jumpi\n  swap2\n  dup3\n  add\ntag_23:\n  dup3\n  dup2\n  gt\n  iszero\n  tag_24\n  jumpi\n  dup3\n  mload\n  dup3\n  sstore\n  swap2\n  0x20\n  add\n  swap2\n  swap1\n  0x1\n  add\n  swap1\n  jump(tag_23)\ntag_24:\ntag_21:\n  pop\n  swap1\n  pop\n  tag_25\n  swap2\n  swap1\n  jump\t// in(tag_20)\ntag_25:\n  pop\n  swap1\n  jump\t// out\ntag_17:\n  tag_26\n  swap2\n  swap1\ntag_27:\n  dup1\n  dup3\n  gt\n  iszero\n  tag_28\n  jumpi\n  0x0\n  dup2\n  dup2\n  tag_29\n  swap2\n  swap1\n  jump\t// in(tag_30)\ntag_29:\n  pop\n  0x1\n  add\n  jump(tag_27)\ntag_28:\n  pop\n  swap1\n  jump\ntag_26:\n  swap1\n  jump\t// out\ntag_20:\n  tag_31\n  swap2\n  swap1\ntag_32:\n  dup1\n  dup3\n  gt\n  iszero\n  tag_33\n  jumpi\n  0x0\n  dup2\n  0x0\n  swap1\n  sstore\n  pop\n  0x1\n  add\n  jump(tag_32)\ntag_33:\n  pop\n  swap1\n  jump\ntag_31:\n  swap1\n  jump\t// out\ntag_30:\n  pop\n  dup1\n  sload\n  0x1\n  dup2\n  0x1\n  and\n  iszero\n  0x100\n  mul\n  sub\n  and\n  0x2\n  swap1\n  div\n  0x0\n  dup3\n  sstore\n  dup1\n  0x1f\n  lt\n  tag_35\n  jumpi\n  pop\n  jump(tag_34)\ntag_35:\n  0x1f\n  add\n  0x20\n  swap1\n  div\n  swap1\n  0x0\n  mstore\n  keccak256(0x0, 0x20)\n  swap1\n  dup2\n  add\n  swap1\n  tag_36\n  swap2\n  swap1\n  jump\t// in(tag_20)\ntag_36:\ntag_34:\n  pop\n  jump\t// out\n    /* \"--CODEGEN--\":22:726   */\ntag_38:\n  0x0\n    /* \"--CODEGEN--\":156:159   */\n  dup3\n    /* \"--CODEGEN--\":149:153   */\n  0x1f\n    /* \"--CODEGEN--\":141:147   */\n  dup4\n    /* \"--CODEGEN--\":137:154   */\n  add\n    /* \"--CODEGEN--\":133:160   */\n  slt\n    /* \"--CODEGEN--\":126:161   */\n  iszero\n    /* \"--CODEGEN--\":123:125   */\n  iszero\n  tag_39\n  jumpi\n    /* \"--CODEGEN--\":174:175   */\n  0x0\n    /* \"--CODEGEN--\":171:172   */\n  dup1\n    /* \"--CODEGEN--\":164:176   */\n  revert\n    /* \"--CODEGEN--\":123:125   */\ntag_39:\n    /* \"--CODEGEN--\":204:210   */\n  dup2\n    /* \"--CODEGEN--\":198:211   */\n  mload\n    /* \"--CODEGEN--\":226:312   */\n  tag_40\n    /* \"--CODEGEN--\":241:311   */\n  tag_41\n    /* \"--CODEGEN--\":304:310   */\n  dup3\n    /* \"--CODEGEN--\":241:311   */\n  jump(tag_42)\ntag_41:\n    /* \"--CODEGEN--\":226:312   */\n  jump(tag_43)\ntag_40:\n    /* \"--CODEGEN--\":217:312   */\n  swap2\n  pop\n    /* \"--CODEGEN--\":329:334   */\n  dup2\n    /* \"--CODEGEN--\":354:360   */\n  dup2\n    /* \"--CODEGEN--\":347:352   */\n  dup4\n    /* \"--CODEGEN--\":340:361   */\n  mstore\n    /* \"--CODEGEN--\":384:388   */\n  0x20\n    /* \"--CODEGEN--\":376:382   */\n  dup5\n    /* \"--CODEGEN--\":372:389   */\n  add\n    /* \"--CODEGEN--\":362:389   */\n  swap4\n  pop\n    /* \"--CODEGEN--\":406:410   */\n  0x20\n    /* \"--CODEGEN--\":401:404   */\n  dup2\n    /* \"--CODEGEN--\":397:411   */\n  add\n    /* \"--CODEGEN--\":390:411   */\n  swap1\n  pop\n    /* \"--CODEGEN--\":459:465   */\n  dup4\n    /* \"--CODEGEN--\":492:493   */\n  0x0\n    /* \"--CODEGEN--\":477:720   */\ntag_44:\n    /* \"--CODEGEN--\":502:508   */\n  dup4\n    /* \"--CODEGEN--\":499:500   */\n  dup2\n    /* \"--CODEGEN--\":496:509   */\n  lt\n    /* \"--CODEGEN--\":477:720   */\n  iszero\n  tag_45\n  jumpi\n    /* \"--CODEGEN--\":578:581   */\n  dup2\n    /* \"--CODEGEN--\":572:582   */\n  mload\n    /* \"--CODEGEN--\":564:570   */\n  dup7\n    /* \"--CODEGEN--\":560:583   */\n  add\n    /* \"--CODEGEN--\":602:656   */\n  tag_47\n    /* \"--CODEGEN--\":652:655   */\n  dup9\n    /* \"--CODEGEN--\":640:650   */\n  dup3\n    /* \"--CODEGEN--\":602:656   */\n  jump(tag_48)\ntag_47:\n    /* \"--CODEGEN--\":597:600   */\n  dup5\n    /* \"--CODEGEN--\":590:657   */\n  mstore\n    /* \"--CODEGEN--\":680:684   */\n  0x20\n    /* \"--CODEGEN--\":675:678   */\n  dup5\n    /* \"--CODEGEN--\":671:685   */\n  add\n    /* \"--CODEGEN--\":664:685   */\n  swap4\n  pop\n    /* \"--CODEGEN--\":708:712   */\n  0x20\n    /* \"--CODEGEN--\":703:706   */\n  dup4\n    /* \"--CODEGEN--\":699:713   */\n  add\n    /* \"--CODEGEN--\":692:713   */\n  swap3\n  pop\n    /* \"--CODEGEN--\":534:720   */\n  pop\n    /* \"--CODEGEN--\":524:525   */\n  0x1\n    /* \"--CODEGEN--\":521:522   */\n  dup2\n    /* \"--CODEGEN--\":517:526   */\n  add\n    /* \"--CODEGEN--\":512:526   */\n  swap1\n  pop\n    /* \"--CODEGEN--\":477:720   */\n  jump(tag_44)\ntag_45:\n    /* \"--CODEGEN--\":481:495   */\n  pop\n    /* \"--CODEGEN--\":116:726   */\n  pop\n  pop\n  pop\n  swap3\n  swap2\n  pop\n  pop\n  jump\n    /* \"--CODEGEN--\":735:1171   */\ntag_48:\n  0x0\n    /* \"--CODEGEN--\":844:847   */\n  dup3\n    /* \"--CODEGEN--\":837:841   */\n  0x1f\n    /* \"--CODEGEN--\":829:835   */\n  dup4\n    /* \"--CODEGEN--\":825:842   */\n  add\n    /* \"--CODEGEN--\":821:848   */\n  slt\n    /* \"--CODEGEN--\":814:849   */\n  iszero\n    /* \"--CODEGEN--\":811:813   */\n  iszero\n  tag_50\n  jumpi\n    /* \"--CODEGEN--\":862:863   */\n  0x0\n    /* \"--CODEGEN--\":859:860   */\n  dup1\n    /* \"--CODEGEN--\":852:864   */\n  revert\n    /* \"--CODEGEN--\":811:813   */\ntag_50:\n    /* \"--CODEGEN--\":892:898   */\n  dup2\n    /* \"--CODEGEN--\":886:899   */\n  mload\n    /* \"--CODEGEN--\":914:975   */\n  tag_51\n    /* \"--CODEGEN--\":929:974   */\n  tag_52\n    /* \"--CODEGEN--\":967:973   */\n  dup3\n    /* \"--CODEGEN--\":929:974   */\n  jump(tag_53)\ntag_52:\n    /* \"--CODEGEN--\":914:975   */\n  jump(tag_43)\ntag_51:\n    /* \"--CODEGEN--\":905:975   */\n  swap2\n  pop\n    /* \"--CODEGEN--\":995:1001   */\n  dup1\n    /* \"--CODEGEN--\":988:993   */\n  dup3\n    /* \"--CODEGEN--\":981:1002   */\n  mstore\n    /* \"--CODEGEN--\":1031:1035   */\n  0x20\n    /* \"--CODEGEN--\":1023:1029   */\n  dup4\n    /* \"--CODEGEN--\":1019:1036   */\n  add\n    /* \"--CODEGEN--\":1064:1068   */\n  0x20\n    /* \"--CODEGEN--\":1057:1062   */\n  dup4\n    /* \"--CODEGEN--\":1053:1069   */\n  add\n    /* \"--CODEGEN--\":1099:1102   */\n  dup6\n    /* \"--CODEGEN--\":1090:1096   */\n  dup4\n    /* \"--CODEGEN--\":1085:1088   */\n  dup4\n    /* \"--CODEGEN--\":1081:1097   */\n  add\n    /* \"--CODEGEN--\":1078:1103   */\n  gt\n    /* \"--CODEGEN--\":1075:1077   */\n  iszero\n  tag_54\n  jumpi\n    /* \"--CODEGEN--\":1116:1117   */\n  0x0\n    /* \"--CODEGEN--\":1113:1114   */\n  dup1\n    /* \"--CODEGEN--\":1106:1118   */\n  revert\n    /* \"--CODEGEN--\":1075:1077   */\ntag_54:\n    /* \"--CODEGEN--\":1126:1165   */\n  tag_55\n    /* \"--CODEGEN--\":1158:1164   */\n  dup4\n    /* \"--CODEGEN--\":1153:1156   */\n  dup3\n    /* \"--CODEGEN--\":1148:1151   */\n  dup5\n    /* \"--CODEGEN--\":1126:1165   */\n  jump(tag_56)\ntag_55:\n    /* \"--CODEGEN--\":804:1171   */\n  pop\n  pop\n  pop\n  swap3\n  swap2\n  pop\n  pop\n  jump\n    /* \"--CODEGEN--\":1179:1583   */\ntag_3:\n  0x0\n    /* \"--CODEGEN--\":1325:1327   */\n  0x20\n    /* \"--CODEGEN--\":1313:1322   */\n  dup3\n    /* \"--CODEGEN--\":1304:1311   */\n  dup5\n    /* \"--CODEGEN--\":1300:1323   */\n  sub\n    /* \"--CODEGEN--\":1296:1328   */\n  slt\n    /* \"--CODEGEN--\":1293:1295   */\n  iszero\n  tag_58\n  jumpi\n    /* \"--CODEGEN--\":1341:1342   */\n  0x0\n    /* \"--CODEGEN--\":1338:1339   */\n  dup1\n    /* \"--CODEGEN--\":1331:1343   */\n  revert\n    /* \"--CODEGEN--\":1293:1295   */\ntag_58:\n    /* \"--CODEGEN--\":1397:1398   */\n  0x0\n    /* \"--CODEGEN--\":1386:1395   */\n  dup3\n    /* \"--CODEGEN--\":1382:1399   */\n  add\n    /* \"--CODEGEN--\":1376:1400   */\n  mload\n    /* \"--CODEGEN--\":1420:1438   */\n  0xffffffffffffffff\n    /* \"--CODEGEN--\":1412:1418   */\n  dup2\n    /* \"--CODEGEN--\":1409:1439   */\n  gt\n    /* \"--CODEGEN--\":1406:1408   */\n  iszero\n  tag_59\n  jumpi\n    /* \"--CODEGEN--\":1452:1453   */\n  0x0\n    /* \"--CODEGEN--\":1449:1450   */\n  dup1\n    /* \"--CODEGEN--\":1442:1454   */\n  revert\n    /* \"--CODEGEN--\":1406:1408   */\ntag_59:\n    /* \"--CODEGEN--\":1472:1567   */\n  tag_60\n    /* \"--CODEGEN--\":1559:1566   */\n  dup5\n    /* \"--CODEGEN--\":1550:1556   */\n  dup3\n    /* \"--CODEGEN--\":1539:1548   */\n  dup6\n    /* \"--CODEGEN--\":1535:1557   */\n  add\n    /* \"--CODEGEN--\":1472:1567   */\n  jump(tag_38)\ntag_60:\n    /* \"--CODEGEN--\":1462:1567   */\n  swap2\n  pop\n    /* \"--CODEGEN--\":1355:1573   */\n  pop\n    /* \"--CODEGEN--\":1287:1583   */\n  swap3\n  swap2\n  pop\n  pop\n  jump\n    /* \"--CODEGEN--\":1590:1846   */\ntag_43:\n  0x0\n    /* \"--CODEGEN--\":1652:1654   */\n  0x40\n    /* \"--CODEGEN--\":1646:1655   */\n  mload\n    /* \"--CODEGEN--\":1636:1655   */\n  swap1\n  pop\n    /* \"--CODEGEN--\":1690:1694   */\n  dup2\n    /* \"--CODEGEN--\":1682:1688   */\n  dup2\n    /* \"--CODEGEN--\":1678:1695   */\n  add\n    /* \"--CODEGEN--\":1789:1795   */\n  dup2\n    /* \"--CODEGEN--\":1777:1787   */\n  dup2\n    /* \"--CODEGEN--\":1774:1796   */\n  lt\n    /* \"--CODEGEN--\":1753:1771   */\n  0xffffffffffffffff\n    /* \"--CODEGEN--\":1741:1751   */\n  dup3\n    /* \"--CODEGEN--\":1738:1772   */\n  gt\n    /* \"--CODEGEN--\":1735:1797   */\n  or\n    /* \"--CODEGEN--\":1732:1734   */\n  iszero\n  tag_62\n  jumpi\n    /* \"--CODEGEN--\":1810:1811   */\n  0x0\n    /* \"--CODEGEN--\":1807:1808   */\n  dup1\n    /* \"--CODEGEN--\":1800:1812   */\n  revert\n    /* \"--CODEGEN--\":1732:1734   */\ntag_62:\n    /* \"--CODEGEN--\":1830:1840   */\n  dup1\n    /* \"--CODEGEN--\":1826:1828   */\n  0x40\n    /* \"--CODEGEN--\":1819:1841   */\n  mstore\n    /* \"--CODEGEN--\":1630:1846   */\n  pop\n  swap2\n  swap1\n  pop\n  jump\n    /* \"--CODEGEN--\":1853:2117   */\ntag_42:\n  0x0\n    /* \"--CODEGEN--\":2018:2036   */\n  0xffffffffffffffff\n    /* \"--CODEGEN--\":2010:2016   */\n  dup3\n    /* \"--CODEGEN--\":2007:2037   */\n  gt\n    /* \"--CODEGEN--\":2004:2006   */\n  iszero\n  tag_64\n  jumpi\n    /* \"--CODEGEN--\":2050:2051   */\n  0x0\n    /* \"--CODEGEN--\":2047:2048   */\n  dup1\n    /* \"--CODEGEN--\":2040:2052   */\n  revert\n    /* \"--CODEGEN--\":2004:2006   */\ntag_64:\n    /* \"--CODEGEN--\":2079:2083   */\n  0x20\n    /* \"--CODEGEN--\":2071:2077   */\n  dup3\n    /* \"--CODEGEN--\":2067:2084   */\n  mul\n    /* \"--CODEGEN--\":2059:2084   */\n  swap1\n  pop\n    /* \"--CODEGEN--\":2107:2111   */\n  0x20\n    /* \"--CODEGEN--\":2101:2105   */\n  dup2\n    /* \"--CODEGEN--\":2097:2112   */\n  add\n    /* \"--CODEGEN--\":2089:2112   */\n  swap1\n  pop\n    /* \"--CODEGEN--\":1941:2117   */\n  swap2\n  swap1\n  pop\n  jump\n    /* \"--CODEGEN--\":2124:2379   */\ntag_53:\n  0x0\n    /* \"--CODEGEN--\":2264:2282   */\n  0xffffffffffffffff\n    /* \"--CODEGEN--\":2256:2262   */\n  dup3\n    /* \"--CODEGEN--\":2253:2283   */\n  gt\n    /* \"--CODEGEN--\":2250:2252   */\n  iszero\n  tag_66\n  jumpi\n    /* \"--CODEGEN--\":2296:2297   */\n  0x0\n    /* \"--CODEGEN--\":2293:2294   */\n  dup1\n    /* \"--CODEGEN--\":2286:2298   */\n  revert\n    /* \"--CODEGEN--\":2250:2252   */\ntag_66:\n    /* \"--CODEGEN--\":2340:2344   */\n  0x1f\n    /* \"--CODEGEN--\":2336:2345   */\n  not\n    /* \"--CODEGEN--\":2329:2333   */\n  0x1f\n    /* \"--CODEGEN--\":2321:2327   */\n  dup4\n    /* \"--CODEGEN--\":2317:2334   */\n  add\n    /* \"--CODEGEN--\":2313:2346   */\n  and\n    /* \"--CODEGEN--\":2305:2346   */\n  swap1\n  pop\n    /* \"--CODEGEN--\":2369:2373   */\n  0x20\n    /* \"--CODEGEN--\":2363:2367   */\n  dup2\n    /* \"--CODEGEN--\":2359:2374   */\n  add\n    /* \"--CODEGEN--\":2351:2374   */\n  swap1\n  pop\n    /* \"--CODEGEN--\":2187:2379   */\n  swap2\n  swap1\n  pop\n  jump\n    /* \"--CODEGEN--\":2387:2655   */\ntag_56:\n    /* \"--CODEGEN--\":2452:2453   */\n  0x0\n    /* \"--CODEGEN--\":2459:2560   */\ntag_68:\n    /* \"--CODEGEN--\":2473:2479   */\n  dup4\n    /* \"--CODEGEN--\":2470:2471   */\n  dup2\n    /* \"--CODEGEN--\":2467:2480   */\n  lt\n    /* \"--CODEGEN--\":2459:2560   */\n  iszero\n  tag_69\n  jumpi\n    /* \"--CODEGEN--\":2549:2550   */\n  dup1\n    /* \"--CODEGEN--\":2544:2547   */\n  dup3\n    /* \"--CODEGEN--\":2540:2551   */\n  add\n    /* \"--CODEGEN--\":2534:2552   */\n  mload\n    /* \"--CODEGEN--\":2530:2531   */\n  dup2\n    /* \"--CODEGEN--\":2525:2528   */\n  dup5\n    /* \"--CODEGEN--\":2521:2532   */\n  add\n    /* \"--CODEGEN--\":2514:2553   */\n  mstore\n    /* \"--CODEGEN--\":2495:2497   */\n  0x20\n    /* \"--CODEGEN--\":2492:2493   */\n  dup2\n    /* \"--CODEGEN--\":2488:2498   */\n  add\n    /* \"--CODEGEN--\":2483:2498   */\n  swap1\n  pop\n    /* \"--CODEGEN--\":2459:2560   */\n  jump(tag_68)\ntag_69:\n    /* \"--CODEGEN--\":2575:2581   */\n  dup4\n    /* \"--CODEGEN--\":2572:2573   */\n  dup2\n    /* \"--CODEGEN--\":2569:2582   */\n  gt\n    /* \"--CODEGEN--\":2566:2568   */\n  iszero\n  tag_71\n  jumpi\n    /* \"--CODEGEN--\":2640:2641   */\n  0x0\n    /* \"--CODEGEN--\":2631:2637   */\n  dup5\n    /* \"--CODEGEN--\":2626:2629   */\n  dup5\n    /* \"--CODEGEN--\":2622:2638   */\n  add\n    /* \"--CODEGEN--\":2615:2642   */\n  mstore\n    /* \"--CODEGEN--\":2566:2568   */\ntag_71:\n    /* \"--CODEGEN--\":2436:2655   */\n  pop\n  pop\n  pop\n  pop\n  jump\n    /* \"voter.sol\":62:589  contract Voter{\r... */\ntag_10:\n  dataSize(sub_0)\n  dup1\n  dataOffset(sub_0)\n  0x0\n  codecopy\n  0x0\n  return\nstop\n\nsub_0: assembly {\n        /* \"voter.sol\":62:589  contract Voter{\r... */\n      mstore(0x40, 0x80)\n      jumpi(tag_1, lt(calldatasize, 0x4))\n      calldataload(0x0)\n      0x100000000000000000000000000000000000000000000000000000000\n      swap1\n      div\n      0xffffffff\n      and\n      dup1\n      0x121b93f\n      eq\n      tag_2\n      jumpi\n      dup1\n      0xdc96015\n      eq\n      tag_3\n      jumpi\n      dup1\n      0x409e2205\n      eq\n      tag_4\n      jumpi\n      dup1\n      0x5df81330\n      eq\n      tag_5\n      jumpi\n      dup1\n      0xcc2ee196\n      eq\n      tag_6\n      jumpi\n    tag_1:\n      0x0\n      dup1\n      revert\n        /* \"voter.sol\":263:406  function vote(uint option) public{\r... */\n    tag_2:\n      callvalue\n        /* \"--CODEGEN--\":8:17   */\n      dup1\n        /* \"--CODEGEN--\":5:7   */\n      iszero\n      tag_7\n      jumpi\n        /* \"--CODEGEN--\":30:31   */\n      0x0\n        /* \"--CODEGEN--\":27:28   */\n      dup1\n        /* \"--CODEGEN--\":20:32   */\n      revert\n        /* \"--CODEGEN--\":5:7   */\n    tag_7:\n        /* \"voter.sol\":263:406  function vote(uint option) public{\r... */\n      pop\n      tag_8\n      0x4\n      dup1\n      calldatasize\n      sub\n      tag_9\n      swap2\n      swap1\n      dup2\n      add\n      swap1\n      jump(tag_10)\n    tag_9:\n      jump(tag_11)\n    tag_8:\n      stop\n        /* \"voter.sol\":507:586  function getVotes() public view returns (uint[]){\r... */\n    tag_3:\n      callvalue\n        /* \"--CODEGEN--\":8:17   */\n      dup1\n        /* \"--CODEGEN--\":5:7   */\n      iszero\n      tag_12\n      jumpi\n        /* \"--CODEGEN--\":30:31   */\n      0x0\n        /* \"--CODEGEN--\":27:28   */\n      dup1\n        /* \"--CODEGEN--\":20:32   */\n      revert\n        /* \"--CODEGEN--\":5:7   */\n    tag_12:\n        /* \"voter.sol\":507:586  function getVotes() public view returns (uint[]){\r... */\n      pop\n      tag_13\n      jump(tag_14)\n    tag_13:\n      mload(0x40)\n      tag_15\n      swap2\n      swap1\n      jump(tag_16)\n    tag_15:\n      mload(0x40)\n      dup1\n      swap2\n      sub\n      swap1\n      return\n        /* \"voter.sol\":109:132  string[] public options */\n    tag_4:\n      callvalue\n        /* \"--CODEGEN--\":8:17   */\n      dup1\n        /* \"--CODEGEN--\":5:7   */\n      iszero\n      tag_17\n      jumpi\n        /* \"--CODEGEN--\":30:31   */\n      0x0\n        /* \"--CODEGEN--\":27:28   */\n      dup1\n        /* \"--CODEGEN--\":20:32   */\n      revert\n        /* \"--CODEGEN--\":5:7   */\n    tag_17:\n        /* \"voter.sol\":109:132  string[] public options */\n      pop\n      tag_18\n      0x4\n      dup1\n      calldatasize\n      sub\n      tag_19\n      swap2\n      swap1\n      dup2\n      add\n      swap1\n      jump(tag_10)\n    tag_19:\n      jump(tag_20)\n    tag_18:\n      mload(0x40)\n      tag_21\n      swap2\n      swap1\n      jump(tag_22)\n    tag_21:\n      mload(0x40)\n      dup1\n      swap2\n      sub\n      swap1\n      return\n        /* \"voter.sol\":83:102  uint[] public votes */\n    tag_5:\n      callvalue\n        /* \"--CODEGEN--\":8:17   */\n      dup1\n        /* \"--CODEGEN--\":5:7   */\n      iszero\n      tag_23\n      jumpi\n        /* \"--CODEGEN--\":30:31   */\n      0x0\n        /* \"--CODEGEN--\":27:28   */\n      dup1\n        /* \"--CODEGEN--\":20:32   */\n      revert\n        /* \"--CODEGEN--\":5:7   */\n    tag_23:\n        /* \"voter.sol\":83:102  uint[] public votes */\n      pop\n      tag_24\n      0x4\n      dup1\n      calldatasize\n      sub\n      tag_25\n      swap2\n      swap1\n      dup2\n      add\n      swap1\n      jump(tag_10)\n    tag_25:\n      jump(tag_26)\n    tag_24:\n      mload(0x40)\n      tag_27\n      swap2\n      swap1\n      jump(tag_28)\n    tag_27:\n      mload(0x40)\n      dup1\n      swap2\n      sub\n      swap1\n      return\n        /* \"voter.sol\":414:499  function getOptions() public view returns (string[]){\r... */\n    tag_6:\n      callvalue\n        /* \"--CODEGEN--\":8:17   */\n      dup1\n        /* \"--CODEGEN--\":5:7   */\n      iszero\n      tag_29\n      jumpi\n        /* \"--CODEGEN--\":30:31   */\n      0x0\n        /* \"--CODEGEN--\":27:28   */\n      dup1\n        /* \"--CODEGEN--\":20:32   */\n      revert\n        /* \"--CODEGEN--\":5:7   */\n    tag_29:\n        /* \"voter.sol\":414:499  function getOptions() public view returns (string[]){\r... */\n      pop\n      tag_30\n      jump(tag_31)\n    tag_30:\n      mload(0x40)\n      tag_32\n      swap2\n      swap1\n      jump(tag_33)\n    tag_32:\n      mload(0x40)\n      dup1\n      swap2\n      sub\n      swap1\n      return\n        /* \"voter.sol\":263:406  function vote(uint option) public{\r... */\n    tag_11:\n        /* \"voter.sol\":320:326  option */\n      dup1\n        /* \"voter.sol\":315:316  0 */\n      0x0\n        /* \"voter.sol\":315:326  0 <= option */\n      gt\n      iszero\n        /* \"voter.sol\":315:353  0 <= option && option < options.length */\n      dup1\n      iszero\n      tag_35\n      jumpi\n      pop\n        /* \"voter.sol\":339:346  options */\n      0x1\n        /* \"voter.sol\":339:353  options.length */\n      dup1\n      sload\n      swap1\n      pop\n        /* \"voter.sol\":330:336  option */\n      dup2\n        /* \"voter.sol\":330:353  option < options.length */\n      lt\n        /* \"voter.sol\":315:353  0 <= option && option < options.length */\n    tag_35:\n        /* \"voter.sol\":307:372  require(0 <= option && option < options.length, \"Invalid option\") */\n      iszero\n      iszero\n      tag_36\n      jumpi\n      mload(0x40)\n      0x8c379a000000000000000000000000000000000000000000000000000000000\n      dup2\n      mstore\n      0x4\n      add\n      tag_37\n      swap1\n      jump(tag_38)\n    tag_37:\n      mload(0x40)\n      dup1\n      swap2\n      sub\n      swap1\n      revert\n    tag_36:\n        /* \"voter.sol\":383:388  votes */\n      0x0\n        /* \"voter.sol\":389:395  option */\n      dup2\n        /* \"voter.sol\":383:396  votes[option] */\n      dup2\n      sload\n      dup2\n      lt\n      iszero\n      iszero\n      tag_39\n      jumpi\n      invalid\n    tag_39:\n      swap1\n      0x0\n      mstore\n      keccak256(0x0, 0x20)\n      add\n      0x0\n        /* \"voter.sol\":383:398  votes[option]++ */\n      dup2\n      sload\n      dup1\n      swap3\n      swap2\n      swap1\n      0x1\n      add\n      swap2\n      swap1\n      pop\n      sstore\n      pop\n        /* \"voter.sol\":263:406  function vote(uint option) public{\r... */\n      pop\n      jump\t// out\n        /* \"voter.sol\":507:586  function getVotes() public view returns (uint[]){\r... */\n    tag_14:\n        /* \"voter.sol\":548:554  uint[] */\n      0x60\n        /* \"voter.sol\":573:578  votes */\n      0x0\n        /* \"voter.sol\":566:578  return votes */\n      dup1\n      sload\n      dup1\n      0x20\n      mul\n      0x20\n      add\n      mload(0x40)\n      swap1\n      dup2\n      add\n      0x40\n      mstore\n      dup1\n      swap3\n      swap2\n      swap1\n      dup2\n      dup2\n      mstore\n      0x20\n      add\n      dup3\n      dup1\n      sload\n      dup1\n      iszero\n      tag_42\n      jumpi\n      0x20\n      mul\n      dup3\n      add\n      swap2\n      swap1\n      0x0\n      mstore\n      keccak256(0x0, 0x20)\n      swap1\n    tag_43:\n      dup2\n      sload\n      dup2\n      mstore\n      0x20\n      add\n      swap1\n      0x1\n      add\n      swap1\n      dup1\n      dup4\n      gt\n      tag_43\n      jumpi\n    tag_42:\n      pop\n      pop\n      pop\n      pop\n      pop\n      swap1\n      pop\n        /* \"voter.sol\":507:586  function getVotes() public view returns (uint[]){\r... */\n      swap1\n      jump\t// out\n        /* \"voter.sol\":109:132  string[] public options */\n    tag_20:\n      0x1\n      dup2\n      dup2\n      sload\n      dup2\n      lt\n      iszero\n      iszero\n      tag_44\n      jumpi\n      invalid\n    tag_44:\n      swap1\n      0x0\n      mstore\n      keccak256(0x0, 0x20)\n      add\n      0x0\n      swap2\n      pop\n      swap1\n      pop\n      dup1\n      sload\n      0x1\n      dup2\n      0x1\n      and\n      iszero\n      0x100\n      mul\n      sub\n      and\n      0x2\n      swap1\n      div\n      dup1\n      0x1f\n      add\n      0x20\n      dup1\n      swap2\n      div\n      mul\n      0x20\n      add\n      mload(0x40)\n      swap1\n      dup2\n      add\n      0x40\n      mstore\n      dup1\n      swap3\n      swap2\n      swap1\n      dup2\n      dup2\n      mstore\n      0x20\n      add\n      dup3\n      dup1\n      sload\n      0x1\n      dup2\n      0x1\n      and\n      iszero\n      0x100\n      mul\n      sub\n      and\n      0x2\n      swap1\n      div\n      dup1\n      iszero\n      tag_46\n      jumpi\n      dup1\n      0x1f\n      lt\n      tag_47\n      jumpi\n      0x100\n      dup1\n      dup4\n      sload\n      div\n      mul\n      dup4\n      mstore\n      swap2\n      0x20\n      add\n      swap2\n      jump(tag_46)\n    tag_47:\n      dup3\n      add\n      swap2\n      swap1\n      0x0\n      mstore\n      keccak256(0x0, 0x20)\n      swap1\n    tag_48:\n      dup2\n      sload\n      dup2\n      mstore\n      swap1\n      0x1\n      add\n      swap1\n      0x20\n      add\n      dup1\n      dup4\n      gt\n      tag_48\n      jumpi\n      dup3\n      swap1\n      sub\n      0x1f\n      and\n      dup3\n      add\n      swap2\n    tag_46:\n      pop\n      pop\n      pop\n      pop\n      pop\n      dup2\n      jump\t// out\n        /* \"voter.sol\":83:102  uint[] public votes */\n    tag_26:\n      0x0\n      dup2\n      dup2\n      sload\n      dup2\n      lt\n      iszero\n      iszero\n      tag_49\n      jumpi\n      invalid\n    tag_49:\n      swap1\n      0x0\n      mstore\n      keccak256(0x0, 0x20)\n      add\n      0x0\n      swap2\n      pop\n      swap1\n      pop\n      sload\n      dup2\n      jump\t// out\n        /* \"voter.sol\":414:499  function getOptions() public view returns (string[]){\r... */\n    tag_31:\n        /* \"voter.sol\":457:465  string[] */\n      0x60\n        /* \"voter.sol\":484:491  options */\n      0x1\n        /* \"voter.sol\":477:491  return options */\n      dup1\n      sload\n      dup1\n      0x20\n      mul\n      0x20\n      add\n      mload(0x40)\n      swap1\n      dup2\n      add\n      0x40\n      mstore\n      dup1\n      swap3\n      swap2\n      swap1\n      dup2\n      dup2\n      mstore\n      0x20\n      add\n      0x0\n      swap1\n    tag_52:\n      dup3\n      dup3\n      lt\n      iszero\n      tag_53\n      jumpi\n      dup4\n      dup3\n      swap1\n      0x0\n      mstore\n      keccak256(0x0, 0x20)\n      add\n      dup1\n      sload\n      0x1\n      dup2\n      0x1\n      and\n      iszero\n      0x100\n      mul\n      sub\n      and\n      0x2\n      swap1\n      div\n      dup1\n      0x1f\n      add\n      0x20\n      dup1\n      swap2\n      div\n      mul\n      0x20\n      add\n      mload(0x40)\n      swap1\n      dup2\n      add\n      0x40\n      mstore\n      dup1\n      swap3\n      swap2\n      swap1\n      dup2\n      dup2\n      mstore\n      0x20\n      add\n      dup3\n      dup1\n      sload\n      0x1\n      dup2\n      0x1\n      and\n      iszero\n      0x100\n      mul\n      sub\n      and\n      0x2\n      swap1\n      div\n      dup1\n      iszero\n      tag_55\n      jumpi\n      dup1\n      0x1f\n      lt\n      tag_56\n      jumpi\n      0x100\n      dup1\n      dup4\n      sload\n      div\n      mul\n      dup4\n      mstore\n      swap2\n      0x20\n      add\n      swap2\n      jump(tag_55)\n    tag_56:\n      dup3\n      add\n      swap2\n      swap1\n      0x0\n      mstore\n      keccak256(0x0, 0x20)\n      swap1\n    tag_57:\n      dup2\n      sload\n      dup2\n      mstore\n      swap1\n      0x1\n      add\n      swap1\n      0x20\n      add\n      dup1\n      dup4\n      gt\n      tag_57\n      jumpi\n      dup3\n      swap1\n      sub\n      0x1f\n      and\n      dup3\n      add\n      swap2\n    tag_55:\n      pop\n      pop\n      pop\n      pop\n      pop\n      dup2\n      mstore\n      0x20\n      add\n      swap1\n      0x1\n      add\n      swap1\n      jump(tag_52)\n    tag_53:\n      pop\n      pop\n      pop\n      pop\n      swap1\n      pop\n        /* \"voter.sol\":414:499  function getOptions() public view returns (string[]){\r... */\n      swap1\n      jump\t// out\n        /* \"--CODEGEN--\":5:123   */\n    tag_59:\n      0x0\n        /* \"--CODEGEN--\":72:118   */\n      tag_60\n        /* \"--CODEGEN--\":110:116   */\n      dup3\n        /* \"--CODEGEN--\":97:117   */\n      calldataload\n        /* \"--CODEGEN--\":72:118   */\n      jump(tag_61)\n    tag_60:\n        /* \"--CODEGEN--\":63:118   */\n      swap1\n      pop\n        /* \"--CODEGEN--\":57:123   */\n      swap3\n      swap2\n      pop\n      pop\n      jump\n        /* \"--CODEGEN--\":130:371   */\n    tag_10:\n      0x0\n        /* \"--CODEGEN--\":234:236   */\n      0x20\n        /* \"--CODEGEN--\":222:231   */\n      dup3\n        /* \"--CODEGEN--\":213:220   */\n      dup5\n        /* \"--CODEGEN--\":209:232   */\n      sub\n        /* \"--CODEGEN--\":205:237   */\n      slt\n        /* \"--CODEGEN--\":202:204   */\n      iszero\n      tag_63\n      jumpi\n        /* \"--CODEGEN--\":250:251   */\n      0x0\n        /* \"--CODEGEN--\":247:248   */\n      dup1\n        /* \"--CODEGEN--\":240:252   */\n      revert\n        /* \"--CODEGEN--\":202:204   */\n    tag_63:\n        /* \"--CODEGEN--\":285:286   */\n      0x0\n        /* \"--CODEGEN--\":302:355   */\n      tag_64\n        /* \"--CODEGEN--\":347:354   */\n      dup5\n        /* \"--CODEGEN--\":338:344   */\n      dup3\n        /* \"--CODEGEN--\":327:336   */\n      dup6\n        /* \"--CODEGEN--\":323:345   */\n      add\n        /* \"--CODEGEN--\":302:355   */\n      jump(tag_59)\n    tag_64:\n        /* \"--CODEGEN--\":292:355   */\n      swap2\n      pop\n        /* \"--CODEGEN--\":264:361   */\n      pop\n        /* \"--CODEGEN--\":196:371   */\n      swap3\n      swap2\n      pop\n      pop\n      jump\n        /* \"--CODEGEN--\":407:1180   */\n    tag_66:\n      0x0\n        /* \"--CODEGEN--\":554:614   */\n      tag_67\n        /* \"--CODEGEN--\":608:613   */\n      dup3\n        /* \"--CODEGEN--\":554:614   */\n      jump(tag_68)\n    tag_67:\n        /* \"--CODEGEN--\":632:638   */\n      dup1\n        /* \"--CODEGEN--\":627:630   */\n      dup5\n        /* \"--CODEGEN--\":620:639   */\n      mstore\n        /* \"--CODEGEN--\":656:660   */\n      0x20\n        /* \"--CODEGEN--\":651:654   */\n      dup5\n        /* \"--CODEGEN--\":647:661   */\n      add\n        /* \"--CODEGEN--\":640:661   */\n      swap4\n      pop\n        /* \"--CODEGEN--\":704:707   */\n      dup4\n        /* \"--CODEGEN--\":746:750   */\n      0x20\n        /* \"--CODEGEN--\":738:744   */\n      dup3\n        /* \"--CODEGEN--\":734:751   */\n      mul\n        /* \"--CODEGEN--\":729:732   */\n      dup6\n        /* \"--CODEGEN--\":725:752   */\n      add\n        /* \"--CODEGEN--\":772:834   */\n      tag_69\n        /* \"--CODEGEN--\":828:833   */\n      dup6\n        /* \"--CODEGEN--\":772:834   */\n      jump(tag_70)\n    tag_69:\n        /* \"--CODEGEN--\":855:856   */\n      0x0\n        /* \"--CODEGEN--\":840:1141   */\n    tag_71:\n        /* \"--CODEGEN--\":865:871   */\n      dup5\n        /* \"--CODEGEN--\":862:863   */\n      dup2\n        /* \"--CODEGEN--\":859:872   */\n      lt\n        /* \"--CODEGEN--\":840:1141   */\n      iszero\n      tag_72\n      jumpi\n        /* \"--CODEGEN--\":927:936   */\n      dup4\n        /* \"--CODEGEN--\":921:925   */\n      dup4\n        /* \"--CODEGEN--\":917:937   */\n      sub\n        /* \"--CODEGEN--\":912:915   */\n      dup9\n        /* \"--CODEGEN--\":905:938   */\n      mstore\n        /* \"--CODEGEN--\":953:1023   */\n      tag_74\n        /* \"--CODEGEN--\":1018:1022   */\n      dup4\n        /* \"--CODEGEN--\":1009:1015   */\n      dup4\n        /* \"--CODEGEN--\":1003:1016   */\n      mload\n        /* \"--CODEGEN--\":953:1023   */\n      jump(tag_75)\n    tag_74:\n        /* \"--CODEGEN--\":945:1023   */\n      swap3\n      pop\n        /* \"--CODEGEN--\":1040:1106   */\n      tag_76\n        /* \"--CODEGEN--\":1099:1105   */\n      dup3\n        /* \"--CODEGEN--\":1040:1106   */\n      jump(tag_77)\n    tag_76:\n        /* \"--CODEGEN--\":1030:1106   */\n      swap2\n      pop\n        /* \"--CODEGEN--\":1129:1133   */\n      0x20\n        /* \"--CODEGEN--\":1124:1127   */\n      dup9\n        /* \"--CODEGEN--\":1120:1134   */\n      add\n        /* \"--CODEGEN--\":1113:1134   */\n      swap8\n      pop\n        /* \"--CODEGEN--\":887:888   */\n      0x1\n        /* \"--CODEGEN--\":884:885   */\n      dup2\n        /* \"--CODEGEN--\":880:889   */\n      add\n        /* \"--CODEGEN--\":875:889   */\n      swap1\n      pop\n        /* \"--CODEGEN--\":840:1141   */\n      jump(tag_71)\n    tag_72:\n        /* \"--CODEGEN--\":844:858   */\n      pop\n        /* \"--CODEGEN--\":1154:1158   */\n      dup2\n        /* \"--CODEGEN--\":1147:1158   */\n      swap7\n      pop\n        /* \"--CODEGEN--\":1171:1174   */\n      dup7\n        /* \"--CODEGEN--\":1164:1174   */\n      swap5\n      pop\n        /* \"--CODEGEN--\":533:1180   */\n      pop\n      pop\n      pop\n      pop\n      swap3\n      swap2\n      pop\n      pop\n      jump\n        /* \"--CODEGEN--\":1219:1809   */\n    tag_79:\n      0x0\n        /* \"--CODEGEN--\":1354:1408   */\n      tag_80\n        /* \"--CODEGEN--\":1402:1407   */\n      dup3\n        /* \"--CODEGEN--\":1354:1408   */\n      jump(tag_81)\n    tag_80:\n        /* \"--CODEGEN--\":1426:1432   */\n      dup1\n        /* \"--CODEGEN--\":1421:1424   */\n      dup5\n        /* \"--CODEGEN--\":1414:1433   */\n      mstore\n        /* \"--CODEGEN--\":1450:1454   */\n      0x20\n        /* \"--CODEGEN--\":1445:1448   */\n      dup5\n        /* \"--CODEGEN--\":1441:1455   */\n      add\n        /* \"--CODEGEN--\":1434:1455   */\n      swap4\n      pop\n        /* \"--CODEGEN--\":1495:1551   */\n      tag_82\n        /* \"--CODEGEN--\":1545:1550   */\n      dup4\n        /* \"--CODEGEN--\":1495:1551   */\n      jump(tag_83)\n    tag_82:\n        /* \"--CODEGEN--\":1572:1573   */\n      0x0\n        /* \"--CODEGEN--\":1557:1787   */\n    tag_84:\n        /* \"--CODEGEN--\":1582:1588   */\n      dup3\n        /* \"--CODEGEN--\":1579:1580   */\n      dup2\n        /* \"--CODEGEN--\":1576:1589   */\n      lt\n        /* \"--CODEGEN--\":1557:1787   */\n      iszero\n      tag_85\n      jumpi\n        /* \"--CODEGEN--\":1622:1675   */\n      tag_87\n        /* \"--CODEGEN--\":1671:1674   */\n      dup7\n        /* \"--CODEGEN--\":1662:1668   */\n      dup4\n        /* \"--CODEGEN--\":1656:1669   */\n      mload\n        /* \"--CODEGEN--\":1622:1675   */\n      jump(tag_88)\n    tag_87:\n        /* \"--CODEGEN--\":1692:1752   */\n      tag_89\n        /* \"--CODEGEN--\":1745:1751   */\n      dup3\n        /* \"--CODEGEN--\":1692:1752   */\n      jump(tag_90)\n    tag_89:\n        /* \"--CODEGEN--\":1682:1752   */\n      swap2\n      pop\n        /* \"--CODEGEN--\":1775:1779   */\n      0x20\n        /* \"--CODEGEN--\":1770:1773   */\n      dup7\n        /* \"--CODEGEN--\":1766:1780   */\n      add\n        /* \"--CODEGEN--\":1759:1780   */\n      swap6\n      pop\n        /* \"--CODEGEN--\":1604:1605   */\n      0x1\n        /* \"--CODEGEN--\":1601:1602   */\n      dup2\n        /* \"--CODEGEN--\":1597:1606   */\n      add\n        /* \"--CODEGEN--\":1592:1606   */\n      swap1\n      pop\n        /* \"--CODEGEN--\":1557:1787   */\n      jump(tag_84)\n    tag_85:\n        /* \"--CODEGEN--\":1561:1575   */\n      pop\n        /* \"--CODEGEN--\":1800:1803   */\n      dup5\n        /* \"--CODEGEN--\":1793:1803   */\n      swap3\n      pop\n        /* \"--CODEGEN--\":1333:1809   */\n      pop\n      pop\n      swap3\n      swap2\n      pop\n      pop\n      jump\n        /* \"--CODEGEN--\":1817:2109   */\n    tag_75:\n      0x0\n        /* \"--CODEGEN--\":1915:1950   */\n      tag_92\n        /* \"--CODEGEN--\":1944:1949   */\n      dup3\n        /* \"--CODEGEN--\":1915:1950   */\n      jump(tag_93)\n    tag_92:\n        /* \"--CODEGEN--\":1967:1973   */\n      dup1\n        /* \"--CODEGEN--\":1962:1965   */\n      dup5\n        /* \"--CODEGEN--\":1955:1974   */\n      mstore\n        /* \"--CODEGEN--\":1979:2042   */\n      tag_94\n        /* \"--CODEGEN--\":2035:2041   */\n      dup2\n        /* \"--CODEGEN--\":2028:2032   */\n      0x20\n        /* \"--CODEGEN--\":2023:2026   */\n      dup7\n        /* \"--CODEGEN--\":2019:2033   */\n      add\n        /* \"--CODEGEN--\":2012:2016   */\n      0x20\n        /* \"--CODEGEN--\":2005:2010   */\n      dup7\n        /* \"--CODEGEN--\":2001:2017   */\n      add\n        /* \"--CODEGEN--\":1979:2042   */\n      jump(tag_95)\n    tag_94:\n        /* \"--CODEGEN--\":2074:2103   */\n      tag_96\n        /* \"--CODEGEN--\":2096:2102   */\n      dup2\n        /* \"--CODEGEN--\":2074:2103   */\n      jump(tag_97)\n    tag_96:\n        /* \"--CODEGEN--\":2067:2071   */\n      0x20\n        /* \"--CODEGEN--\":2062:2065   */\n      dup6\n        /* \"--CODEGEN--\":2058:2072   */\n      add\n        /* \"--CODEGEN--\":2054:2104   */\n      add\n        /* \"--CODEGEN--\":2047:2104   */\n      swap2\n      pop\n        /* \"--CODEGEN--\":1895:2109   */\n      pop\n      swap3\n      swap2\n      pop\n      pop\n      jump\n        /* \"--CODEGEN--\":2117:2413   */\n    tag_99:\n      0x0\n        /* \"--CODEGEN--\":2272:2274   */\n      0xe\n        /* \"--CODEGEN--\":2267:2270   */\n      dup3\n        /* \"--CODEGEN--\":2260:2275   */\n      mstore\n        /* \"--CODEGEN--\":2309:2375   */\n      0x496e76616c6964206f7074696f6e000000000000000000000000000000000000\n        /* \"--CODEGEN--\":2304:2306   */\n      0x20\n        /* \"--CODEGEN--\":2299:2302   */\n      dup4\n        /* \"--CODEGEN--\":2295:2307   */\n      add\n        /* \"--CODEGEN--\":2288:2376   */\n      mstore\n        /* \"--CODEGEN--\":2404:2406   */\n      0x40\n        /* \"--CODEGEN--\":2399:2402   */\n      dup3\n        /* \"--CODEGEN--\":2395:2407   */\n      add\n        /* \"--CODEGEN--\":2388:2407   */\n      swap1\n      pop\n        /* \"--CODEGEN--\":2253:2413   */\n      swap2\n      swap1\n      pop\n      jump\n        /* \"--CODEGEN--\":2421:2531   */\n    tag_88:\n        /* \"--CODEGEN--\":2494:2525   */\n      tag_101\n        /* \"--CODEGEN--\":2519:2524   */\n      dup2\n        /* \"--CODEGEN--\":2494:2525   */\n      jump(tag_102)\n    tag_101:\n        /* \"--CODEGEN--\":2489:2492   */\n      dup3\n        /* \"--CODEGEN--\":2482:2526   */\n      mstore\n        /* \"--CODEGEN--\":2476:2531   */\n      pop\n      pop\n      jump\n        /* \"--CODEGEN--\":2538:2903   */\n    tag_33:\n      0x0\n        /* \"--CODEGEN--\":2708:2710   */\n      0x20\n        /* \"--CODEGEN--\":2697:2706   */\n      dup3\n        /* \"--CODEGEN--\":2693:2711   */\n      add\n        /* \"--CODEGEN--\":2685:2711   */\n      swap1\n      pop\n        /* \"--CODEGEN--\":2758:2767   */\n      dup2\n        /* \"--CODEGEN--\":2752:2756   */\n      dup2\n        /* \"--CODEGEN--\":2748:2768   */\n      sub\n        /* \"--CODEGEN--\":2744:2745   */\n      0x0\n        /* \"--CODEGEN--\":2733:2742   */\n      dup4\n        /* \"--CODEGEN--\":2729:2746   */\n      add\n        /* \"--CODEGEN--\":2722:2769   */\n      mstore\n        /* \"--CODEGEN--\":2783:2893   */\n      tag_104\n        /* \"--CODEGEN--\":2888:2892   */\n      dup2\n        /* \"--CODEGEN--\":2879:2885   */\n      dup5\n        /* \"--CODEGEN--\":2783:2893   */\n      jump(tag_66)\n    tag_104:\n        /* \"--CODEGEN--\":2775:2893   */\n      swap1\n      pop\n        /* \"--CODEGEN--\":2679:2903   */\n      swap3\n      swap2\n      pop\n      pop\n      jump\n        /* \"--CODEGEN--\":2910:3251   */\n    tag_16:\n      0x0\n        /* \"--CODEGEN--\":3068:3070   */\n      0x20\n        /* \"--CODEGEN--\":3057:3066   */\n      dup3\n        /* \"--CODEGEN--\":3053:3071   */\n      add\n        /* \"--CODEGEN--\":3045:3071   */\n      swap1\n      pop\n        /* \"--CODEGEN--\":3118:3127   */\n      dup2\n        /* \"--CODEGEN--\":3112:3116   */\n      dup2\n        /* \"--CODEGEN--\":3108:3128   */\n      sub\n        /* \"--CODEGEN--\":3104:3105   */\n      0x0\n        /* \"--CODEGEN--\":3093:3102   */\n      dup4\n        /* \"--CODEGEN--\":3089:3106   */\n      add\n        /* \"--CODEGEN--\":3082:3129   */\n      mstore\n        /* \"--CODEGEN--\":3143:3241   */\n      tag_106\n        /* \"--CODEGEN--\":3236:3240   */\n      dup2\n        /* \"--CODEGEN--\":3227:3233   */\n      dup5\n        /* \"--CODEGEN--\":3143:3241   */\n      jump(tag_79)\n    tag_106:\n        /* \"--CODEGEN--\":3135:3241   */\n      swap1\n      pop\n        /* \"--CODEGEN--\":3039:3251   */\n      swap3\n      swap2\n      pop\n      pop\n      jump\n        /* \"--CODEGEN--\":3258:3531   */\n    tag_22:\n      0x0\n        /* \"--CODEGEN--\":3382:3384   */\n      0x20\n        /* \"--CODEGEN--\":3371:3380   */\n      dup3\n        /* \"--CODEGEN--\":3367:3385   */\n      add\n        /* \"--CODEGEN--\":3359:3385   */\n      swap1\n      pop\n        /* \"--CODEGEN--\":3432:3441   */\n      dup2\n        /* \"--CODEGEN--\":3426:3430   */\n      dup2\n        /* \"--CODEGEN--\":3422:3442   */\n      sub\n        /* \"--CODEGEN--\":3418:3419   */\n      0x0\n        /* \"--CODEGEN--\":3407:3416   */\n      dup4\n        /* \"--CODEGEN--\":3403:3420   */\n      add\n        /* \"--CODEGEN--\":3396:3443   */\n      mstore\n        /* \"--CODEGEN--\":3457:3521   */\n      tag_108\n        /* \"--CODEGEN--\":3516:3520   */\n      dup2\n        /* \"--CODEGEN--\":3507:3513   */\n      dup5\n        /* \"--CODEGEN--\":3457:3521   */\n      jump(tag_75)\n    tag_108:\n        /* \"--CODEGEN--\":3449:3521   */\n      swap1\n      pop\n        /* \"--CODEGEN--\":3353:3531   */\n      swap3\n      swap2\n      pop\n      pop\n      jump\n        /* \"--CODEGEN--\":3538:3925   */\n    tag_38:\n      0x0\n        /* \"--CODEGEN--\":3719:3721   */\n      0x20\n        /* \"--CODEGEN--\":3708:3717   */\n      dup3\n        /* \"--CODEGEN--\":3704:3722   */\n      add\n        /* \"--CODEGEN--\":3696:3722   */\n      swap1\n      pop\n        /* \"--CODEGEN--\":3769:3778   */\n      dup2\n        /* \"--CODEGEN--\":3763:3767   */\n      dup2\n        /* \"--CODEGEN--\":3759:3779   */\n      sub\n        /* \"--CODEGEN--\":3755:3756   */\n      0x0\n        /* \"--CODEGEN--\":3744:3753   */\n      dup4\n        /* \"--CODEGEN--\":3740:3757   */\n      add\n        /* \"--CODEGEN--\":3733:3780   */\n      mstore\n        /* \"--CODEGEN--\":3794:3915   */\n      tag_110\n        /* \"--CODEGEN--\":3910:3914   */\n      dup2\n        /* \"--CODEGEN--\":3794:3915   */\n      jump(tag_99)\n    tag_110:\n        /* \"--CODEGEN--\":3786:3915   */\n      swap1\n      pop\n        /* \"--CODEGEN--\":3690:3925   */\n      swap2\n      swap1\n      pop\n      jump\n        /* \"--CODEGEN--\":3932:4125   */\n    tag_28:\n      0x0\n        /* \"--CODEGEN--\":4040:4042   */\n      0x20\n        /* \"--CODEGEN--\":4029:4038   */\n      dup3\n        /* \"--CODEGEN--\":4025:4043   */\n      add\n        /* \"--CODEGEN--\":4017:4043   */\n      swap1\n      pop\n        /* \"--CODEGEN--\":4054:4115   */\n      tag_112\n        /* \"--CODEGEN--\":4112:4113   */\n      0x0\n        /* \"--CODEGEN--\":4101:4110   */\n      dup4\n        /* \"--CODEGEN--\":4097:4114   */\n      add\n        /* \"--CODEGEN--\":4088:4094   */\n      dup5\n        /* \"--CODEGEN--\":4054:4115   */\n      jump(tag_88)\n    tag_112:\n        /* \"--CODEGEN--\":4011:4125   */\n      swap3\n      swap2\n      pop\n      pop\n      jump\n        /* \"--CODEGEN--\":4134:4261   */\n    tag_70:\n      0x0\n        /* \"--CODEGEN--\":4249:4253   */\n      0x20\n        /* \"--CODEGEN--\":4241:4247   */\n      dup3\n        /* \"--CODEGEN--\":4237:4254   */\n      add\n        /* \"--CODEGEN--\":4226:4254   */\n      swap1\n      pop\n        /* \"--CODEGEN--\":4218:4261   */\n      swap2\n      swap1\n      pop\n      jump\n        /* \"--CODEGEN--\":4272:4393   */\n    tag_83:\n      0x0\n        /* \"--CODEGEN--\":4381:4385   */\n      0x20\n        /* \"--CODEGEN--\":4373:4379   */\n      dup3\n        /* \"--CODEGEN--\":4369:4386   */\n      add\n        /* \"--CODEGEN--\":4358:4386   */\n      swap1\n      pop\n        /* \"--CODEGEN--\":4350:4393   */\n      swap2\n      swap1\n      pop\n      jump\n        /* \"--CODEGEN--\":4402:4515   */\n    tag_68:\n      0x0\n        /* \"--CODEGEN--\":4504:4509   */\n      dup2\n        /* \"--CODEGEN--\":4498:4510   */\n      mload\n        /* \"--CODEGEN--\":4488:4510   */\n      swap1\n      pop\n        /* \"--CODEGEN--\":4482:4515   */\n      swap2\n      swap1\n      pop\n      jump\n        /* \"--CODEGEN--\":4522:4629   */\n    tag_81:\n      0x0\n        /* \"--CODEGEN--\":4618:4623   */\n      dup2\n        /* \"--CODEGEN--\":4612:4624   */\n      mload\n        /* \"--CODEGEN--\":4602:4624   */\n      swap1\n      pop\n        /* \"--CODEGEN--\":4596:4629   */\n      swap2\n      swap1\n      pop\n      jump\n        /* \"--CODEGEN--\":4636:4724   */\n    tag_93:\n      0x0\n        /* \"--CODEGEN--\":4713:4718   */\n      dup2\n        /* \"--CODEGEN--\":4707:4719   */\n      mload\n        /* \"--CODEGEN--\":4697:4719   */\n      swap1\n      pop\n        /* \"--CODEGEN--\":4691:4724   */\n      swap2\n      swap1\n      pop\n      jump\n        /* \"--CODEGEN--\":4732:4860   */\n    tag_77:\n      0x0\n        /* \"--CODEGEN--\":4849:4853   */\n      0x20\n        /* \"--CODEGEN--\":4841:4847   */\n      dup3\n        /* \"--CODEGEN--\":4837:4854   */\n      add\n        /* \"--CODEGEN--\":4826:4854   */\n      swap1\n      pop\n        /* \"--CODEGEN--\":4819:4860   */\n      swap2\n      swap1\n      pop\n      jump\n        /* \"--CODEGEN--\":4869:4991   */\n    tag_90:\n      0x0\n        /* \"--CODEGEN--\":4980:4984   */\n      0x20\n        /* \"--CODEGEN--\":4972:4978   */\n      dup3\n        /* \"--CODEGEN--\":4968:4985   */\n      add\n        /* \"--CODEGEN--\":4957:4985   */\n      swap1\n      pop\n        /* \"--CODEGEN--\":4950:4991   */\n      swap2\n      swap1\n      pop\n      jump\n        /* \"--CODEGEN--\":4999:5078   */\n    tag_102:\n      0x0\n        /* \"--CODEGEN--\":5068:5073   */\n      dup2\n        /* \"--CODEGEN--\":5057:5073   */\n      swap1\n      pop\n        /* \"--CODEGEN--\":5051:5078   */\n      swap2\n      swap1\n      pop\n      jump\n        /* \"--CODEGEN--\":5085:5164   */\n    tag_61:\n      0x0\n        /* \"--CODEGEN--\":5154:5159   */\n      dup2\n        /* \"--CODEGEN--\":5143:5159   */\n      swap1\n      pop\n        /* \"--CODEGEN--\":5137:5164   */\n      swap2\n      swap1\n      pop\n      jump\n        /* \"--CODEGEN--\":5172:5440   */\n    tag_95:\n        /* \"--CODEGEN--\":5237:5238   */\n      0x0\n        /* \"--CODEGEN--\":5244:5345   */\n    tag_123:\n        /* \"--CODEGEN--\":5258:5264   */\n      dup4\n        /* \"--CODEGEN--\":5255:5256   */\n      dup2\n        /* \"--CODEGEN--\":5252:5265   */\n      lt\n        /* \"--CODEGEN--\":5244:5345   */\n      iszero\n      tag_124\n      jumpi\n        /* \"--CODEGEN--\":5334:5335   */\n      dup1\n        /* \"--CODEGEN--\":5329:5332   */\n      dup3\n        /* \"--CODEGEN--\":5325:5336   */\n      add\n        /* \"--CODEGEN--\":5319:5337   */\n      mload\n        /* \"--CODEGEN--\":5315:5316   */\n      dup2\n        /* \"--CODEGEN--\":5310:5313   */\n      dup5\n        /* \"--CODEGEN--\":5306:5317   */\n      add\n        /* \"--CODEGEN--\":5299:5338   */\n      mstore\n        /* \"--CODEGEN--\":5280:5282   */\n      0x20\n        /* \"--CODEGEN--\":5277:5278   */\n      dup2\n        /* \"--CODEGEN--\":5273:5283   */\n      add\n        /* \"--CODEGEN--\":5268:5283   */\n      swap1\n      pop\n        /* \"--CODEGEN--\":5244:5345   */\n      jump(tag_123)\n    tag_124:\n        /* \"--CODEGEN--\":5360:5366   */\n      dup4\n        /* \"--CODEGEN--\":5357:5358   */\n      dup2\n        /* \"--CODEGEN--\":5354:5367   */\n      gt\n        /* \"--CODEGEN--\":5351:5353   */\n      iszero\n      tag_126\n      jumpi\n        /* \"--CODEGEN--\":5425:5426   */\n      0x0\n        /* \"--CODEGEN--\":5416:5422   */\n      dup5\n        /* \"--CODEGEN--\":5411:5414   */\n      dup5\n        /* \"--CODEGEN--\":5407:5423   */\n      add\n        /* \"--CODEGEN--\":5400:5427   */\n      mstore\n        /* \"--CODEGEN--\":5351:5353   */\n    tag_126:\n        /* \"--CODEGEN--\":5221:5440   */\n      pop\n      pop\n      pop\n      pop\n      jump\n        /* \"--CODEGEN--\":5448:5545   */\n    tag_97:\n      0x0\n        /* \"--CODEGEN--\":5536:5538   */\n      0x1f\n        /* \"--CODEGEN--\":5532:5539   */\n      not\n        /* \"--CODEGEN--\":5527:5529   */\n      0x1f\n        /* \"--CODEGEN--\":5520:5525   */\n      dup4\n        /* \"--CODEGEN--\":5516:5530   */\n      add\n        /* \"--CODEGEN--\":5512:5540   */\n      and\n        /* \"--CODEGEN--\":5502:5540   */\n      swap1\n      pop\n        /* \"--CODEGEN--\":5496:5545   */\n      swap2\n      swap1\n      pop\n      jump\n\n    auxdata: 0xa265627a7a72305820708b0a108871b3dc7d1031949676dea6df72523cf9b730ca05c99c7b1ddff3d46c6578706572696d656e74616cf50037\n}\n",
				"bytecode": {
					"linkReferences": {},
					"object": "60806040523480156200001157600080fd5b5060405162000b3138038062000b3183398101806040526200003791908101906200030c565b80600190805190602001906200004f9291906200006d565b50600180549050600081620000659190620000d4565b50506200040b565b828054828255906000526020600020908101928215620000c1579160200282015b82811115620000c0578251829080519060200190620000af92919062000103565b50916020019190600101906200008e565b5b509050620000d091906200018a565b5090565b815481835581811115620000fe57818360005260206000209182019101620000fd9190620001bb565b5b505050565b828054600181600116156101000203166002900490600052602060002090601f016020900481019282601f106200014657805160ff191683800117855562000177565b8280016001018555821562000177579182015b828111156200017657825182559160200191906001019062000159565b5b509050620001869190620001bb565b5090565b620001b891905b80821115620001b45760008181620001aa9190620001e3565b5060010162000191565b5090565b90565b620001e091905b80821115620001dc576000816000905550600101620001c2565b5090565b90565b50805460018160011615610100020316600290046000825580601f106200020b57506200022c565b601f0160209004906000526020600020908101906200022b9190620001bb565b5b50565b600082601f83011215156200024357600080fd5b81516200025a62000254826200037f565b62000351565b9150818183526020840193506020810190508360005b83811015620002a45781518601620002898882620002ae565b84526020840193506020830192505060018101905062000270565b5050505092915050565b600082601f8301121515620002c257600080fd5b8151620002d9620002d382620003a8565b62000351565b91508082526020830160208301858383011115620002f657600080fd5b62000303838284620003d5565b50505092915050565b6000602082840312156200031f57600080fd5b600082015167ffffffffffffffff8111156200033a57600080fd5b62000348848285016200022f565b91505092915050565b6000604051905081810181811067ffffffffffffffff821117156200037557600080fd5b8060405250919050565b600067ffffffffffffffff8211156200039757600080fd5b602082029050602081019050919050565b600067ffffffffffffffff821115620003c057600080fd5b601f19601f8301169050602081019050919050565b60005b83811015620003f5578082015181840152602081019050620003d8565b8381111562000405576000848401525b50505050565b610716806200041b6000396000f30060806040526004361061006d576000357c0100000000000000000000000000000000000000000000000000000000900463ffffffff1680630121b93f146100725780630dc960151461009b578063409e2205146100c65780635df8133014610103578063cc2ee19614610140575b600080fd5b34801561007e57600080fd5b5061009960048036036100949190810190610420565b61016b565b005b3480156100a757600080fd5b506100b06101ed565b6040516100bd91906105b0565b60405180910390f35b3480156100d257600080fd5b506100ed60048036036100e89190810190610420565b610245565b6040516100fa91906105d2565b60405180910390f35b34801561010f57600080fd5b5061012a60048036036101259190810190610420565b610300565b6040516101379190610614565b60405180910390f35b34801561014c57600080fd5b50610155610323565b604051610162919061058e565b60405180910390f35b80600011158015610180575060018054905081105b15156101c1576040517f08c379a00000000000000000000000000000000000000000000000000000000081526004016101b8906105f4565b60405180910390fd5b6000818154811015156101d057fe5b906000526020600020016000815480929190600101919050555050565b6060600080548060200260200160405190810160405280929190818152602001828054801561023b57602002820191906000526020600020905b815481526020019060010190808311610227575b5050505050905090565b60018181548110151561025457fe5b906000526020600020016000915090508054600181600116156101000203166002900480601f0160208091040260200160405190810160405280929190818152602001828054600181600116156101000203166002900480156102f85780601f106102cd576101008083540402835291602001916102f8565b820191906000526020600020905b8154815290600101906020018083116102db57829003601f168201915b505050505081565b60008181548110151561030f57fe5b906000526020600020016000915090505481565b60606001805480602002602001604051908101604052809291908181526020016000905b82821015610403578382906000526020600020018054600181600116156101000203166002900480601f0160208091040260200160405190810160405280929190818152602001828054600181600116156101000203166002900480156103ef5780601f106103c4576101008083540402835291602001916103ef565b820191906000526020600020905b8154815290600101906020018083116103d257829003601f168201915b505050505081526020019060010190610347565b50505050905090565b6000610418823561068e565b905092915050565b60006020828403121561043257600080fd5b60006104408482850161040c565b91505092915050565b600061045482610649565b8084526020840193508360208202850161046d8561062f565b60005b848110156104a6578383038852610488838351610512565b92506104938261066a565b9150602088019750600181019050610470565b508196508694505050505092915050565b60006104c282610654565b8084526020840193506104d48361063c565b60005b82811015610506576104ea86835161057f565b6104f382610677565b91506020860195506001810190506104d7565b50849250505092915050565b600061051d8261065f565b808452610531816020860160208601610698565b61053a816106cb565b602085010191505092915050565b6000600e82527f496e76616c6964206f7074696f6e0000000000000000000000000000000000006020830152604082019050919050565b61058881610684565b82525050565b600060208201905081810360008301526105a88184610449565b905092915050565b600060208201905081810360008301526105ca81846104b7565b905092915050565b600060208201905081810360008301526105ec8184610512565b905092915050565b6000602082019050818103600083015261060d81610548565b9050919050565b6000602082019050610629600083018461057f565b92915050565b6000602082019050919050565b6000602082019050919050565b600081519050919050565b600081519050919050565b600081519050919050565b6000602082019050919050565b6000602082019050919050565b6000819050919050565b6000819050919050565b60005b838110156106b657808201518184015260208101905061069b565b838111156106c5576000848401525b50505050565b6000601f19601f83011690509190505600a265627a7a72305820708b0a108871b3dc7d1031949676dea6df72523cf9b730ca05c99c7b1ddff3d46c6578706572696d656e74616cf50037",
					"opcodes": "PUSH1 0x80 PUSH1 0x40 MSTORE CALLVALUE DUP1 ISZERO PUSH3 0x11 JUMPI PUSH1 0x0 DUP1 REVERT JUMPDEST POP PUSH1 0x40 MLOAD PUSH3 0xB31 CODESIZE SUB DUP1 PUSH3 0xB31 DUP4 CODECOPY DUP2 ADD DUP1 PUSH1 0x40 MSTORE PUSH3 0x37 SWAP2 SWAP1 DUP2 ADD SWAP1 PUSH3 0x30C JUMP JUMPDEST DUP1 PUSH1 0x1 SWAP1 DUP1 MLOAD SWAP1 PUSH1 0x20 ADD SWAP1 PUSH3 0x4F SWAP3 SWAP2 SWAP1 PUSH3 0x6D JUMP JUMPDEST POP PUSH1 0x1 DUP1 SLOAD SWAP1 POP PUSH1 0x0 DUP2 PUSH3 0x65 SWAP2 SWAP1 PUSH3 0xD4 JUMP JUMPDEST POP POP PUSH3 0x40B JUMP JUMPDEST DUP3 DUP1 SLOAD DUP3 DUP3 SSTORE SWAP1 PUSH1 0x0 MSTORE PUSH1 0x20 PUSH1 0x0 KECCAK256 SWAP1 DUP2 ADD SWAP3 DUP3 ISZERO PUSH3 0xC1 JUMPI SWAP2 PUSH1 0x20 MUL DUP3 ADD JUMPDEST DUP3 DUP2 GT ISZERO PUSH3 0xC0 JUMPI DUP3 MLOAD DUP3 SWAP1 DUP1 MLOAD SWAP1 PUSH1 0x20 ADD SWAP1 PUSH3 0xAF SWAP3 SWAP2 SWAP1 PUSH3 0x103 JUMP JUMPDEST POP SWAP2 PUSH1 0x20 ADD SWAP2 SWAP1 PUSH1 0x1 ADD SWAP1 PUSH3 0x8E JUMP JUMPDEST JUMPDEST POP SWAP1 POP PUSH3 0xD0 SWAP2 SWAP1 PUSH3 0x18A JUMP JUMPDEST POP SWAP1 JUMP JUMPDEST DUP2 SLOAD DUP2 DUP4 SSTORE DUP2 DUP2 GT ISZERO PUSH3 0xFE JUMPI DUP2 DUP4 PUSH1 0x0 MSTORE PUSH1 0x20 PUSH1 0x0 KECCAK256 SWAP2 DUP3 ADD SWAP2 ADD PUSH3 0xFD SWAP2 SWAP1 PUSH3 0x1BB JUMP JUMPDEST JUMPDEST POP POP POP JUMP JUMPDEST DUP3 DUP1 SLOAD PUSH1 0x1 DUP2 PUSH1 0x1 AND ISZERO PUSH2 0x100 MUL SUB AND PUSH1 0x2 SWAP1 DIV SWAP1 PUSH1 0x0 MSTORE PUSH1 0x20 PUSH1 0x0 KECCAK256 SWAP1 PUSH1 0x1F ADD PUSH1 0x20 SWAP1 DIV DUP2 ADD SWAP3 DUP3 PUSH1 0x1F LT PUSH3 0x146 JUMPI DUP1 MLOAD PUSH1 0xFF NOT AND DUP4 DUP1 ADD OR DUP6 SSTORE PUSH3 0x177 JUMP JUMPDEST DUP3 DUP1 ADD PUSH1 0x1 ADD DUP6 SSTORE DUP3 ISZERO PUSH3 0x177 JUMPI SWAP2 DUP3 ADD JUMPDEST DUP3 DUP2 GT ISZERO PUSH3 0x176 JUMPI DUP3 MLOAD DUP3 SSTORE SWAP2 PUSH1 0x20 ADD SWAP2 SWAP1 PUSH1 0x1 ADD SWAP1 PUSH3 0x159 JUMP JUMPDEST JUMPDEST POP SWAP1 POP PUSH3 0x186 SWAP2 SWAP1 PUSH3 0x1BB JUMP JUMPDEST POP SWAP1 JUMP JUMPDEST PUSH3 0x1B8 SWAP2 SWAP1 JUMPDEST DUP1 DUP3 GT ISZERO PUSH3 0x1B4 JUMPI PUSH1 0x0 DUP2 DUP2 PUSH3 0x1AA SWAP2 SWAP1 PUSH3 0x1E3 JUMP JUMPDEST POP PUSH1 0x1 ADD PUSH3 0x191 JUMP JUMPDEST POP SWAP1 JUMP JUMPDEST SWAP1 JUMP JUMPDEST PUSH3 0x1E0 SWAP2 SWAP1 JUMPDEST DUP1 DUP3 GT ISZERO PUSH3 0x1DC JUMPI PUSH1 0x0 DUP2 PUSH1 0x0 SWAP1 SSTORE POP PUSH1 0x1 ADD PUSH3 0x1C2 JUMP JUMPDEST POP SWAP1 JUMP JUMPDEST SWAP1 JUMP JUMPDEST POP DUP1 SLOAD PUSH1 0x1 DUP2 PUSH1 0x1 AND ISZERO PUSH2 0x100 MUL SUB AND PUSH1 0x2 SWAP1 DIV PUSH1 0x0 DUP3 SSTORE DUP1 PUSH1 0x1F LT PUSH3 0x20B JUMPI POP PUSH3 0x22C JUMP JUMPDEST PUSH1 0x1F ADD PUSH1 0x20 SWAP1 DIV SWAP1 PUSH1 0x0 MSTORE PUSH1 0x20 PUSH1 0x0 KECCAK256 SWAP1 DUP2 ADD SWAP1 PUSH3 0x22B SWAP2 SWAP1 PUSH3 0x1BB JUMP JUMPDEST JUMPDEST POP JUMP JUMPDEST PUSH1 0x0 DUP3 PUSH1 0x1F DUP4 ADD SLT ISZERO ISZERO PUSH3 0x243 JUMPI PUSH1 0x0 DUP1 REVERT JUMPDEST DUP2 MLOAD PUSH3 0x25A PUSH3 0x254 DUP3 PUSH3 0x37F JUMP JUMPDEST PUSH3 0x351 JUMP JUMPDEST SWAP2 POP DUP2 DUP2 DUP4 MSTORE PUSH1 0x20 DUP5 ADD SWAP4 POP PUSH1 0x20 DUP2 ADD SWAP1 POP DUP4 PUSH1 0x0 JUMPDEST DUP4 DUP2 LT ISZERO PUSH3 0x2A4 JUMPI DUP2 MLOAD DUP7 ADD PUSH3 0x289 DUP9 DUP3 PUSH3 0x2AE JUMP JUMPDEST DUP5 MSTORE PUSH1 0x20 DUP5 ADD SWAP4 POP PUSH1 0x20 DUP4 ADD SWAP3 POP POP PUSH1 0x1 DUP2 ADD SWAP1 POP PUSH3 0x270 JUMP JUMPDEST POP POP POP POP SWAP3 SWAP2 POP POP JUMP JUMPDEST PUSH1 0x0 DUP3 PUSH1 0x1F DUP4 ADD SLT ISZERO ISZERO PUSH3 0x2C2 JUMPI PUSH1 0x0 DUP1 REVERT JUMPDEST DUP2 MLOAD PUSH3 0x2D9 PUSH3 0x2D3 DUP3 PUSH3 0x3A8 JUMP JUMPDEST PUSH3 0x351 JUMP JUMPDEST SWAP2 POP DUP1 DUP3 MSTORE PUSH1 0x20 DUP4 ADD PUSH1 0x20 DUP4 ADD DUP6 DUP4 DUP4 ADD GT ISZERO PUSH3 0x2F6 JUMPI PUSH1 0x0 DUP1 REVERT JUMPDEST PUSH3 0x303 DUP4 DUP3 DUP5 PUSH3 0x3D5 JUMP JUMPDEST POP POP POP SWAP3 SWAP2 POP POP JUMP JUMPDEST PUSH1 0x0 PUSH1 0x20 DUP3 DUP5 SUB SLT ISZERO PUSH3 0x31F JUMPI PUSH1 0x0 DUP1 REVERT JUMPDEST PUSH1 0x0 DUP3 ADD MLOAD PUSH8 0xFFFFFFFFFFFFFFFF DUP2 GT ISZERO PUSH3 0x33A JUMPI PUSH1 0x0 DUP1 REVERT JUMPDEST PUSH3 0x348 DUP5 DUP3 DUP6 ADD PUSH3 0x22F JUMP JUMPDEST SWAP2 POP POP SWAP3 SWAP2 POP POP JUMP JUMPDEST PUSH1 0x0 PUSH1 0x40 MLOAD SWAP1 POP DUP2 DUP2 ADD DUP2 DUP2 LT PUSH8 0xFFFFFFFFFFFFFFFF DUP3 GT OR ISZERO PUSH3 0x375 JUMPI PUSH1 0x0 DUP1 REVERT JUMPDEST DUP1 PUSH1 0x40 MSTORE POP SWAP2 SWAP1 POP JUMP JUMPDEST PUSH1 0x0 PUSH8 0xFFFFFFFFFFFFFFFF DUP3 GT ISZERO PUSH3 0x397 JUMPI PUSH1 0x0 DUP1 REVERT JUMPDEST PUSH1 0x20 DUP3 MUL SWAP1 POP PUSH1 0x20 DUP2 ADD SWAP1 POP SWAP2 SWAP1 POP JUMP JUMPDEST PUSH1 0x0 PUSH8 0xFFFFFFFFFFFFFFFF DUP3 GT ISZERO PUSH3 0x3C0 JUMPI PUSH1 0x0 DUP1 REVERT JUMPDEST PUSH1 0x1F NOT PUSH1 0x1F DUP4 ADD AND SWAP1 POP PUSH1 0x20 DUP2 ADD SWAP1 POP SWAP2 SWAP1 POP JUMP JUMPDEST PUSH1 0x0 JUMPDEST DUP4 DUP2 LT ISZERO PUSH3 0x3F5 JUMPI DUP1 DUP3 ADD MLOAD DUP2 DUP5 ADD MSTORE PUSH1 0x20 DUP2 ADD SWAP1 POP PUSH3 0x3D8 JUMP JUMPDEST DUP4 DUP2 GT ISZERO PUSH3 0x405 JUMPI PUSH1 0x0 DUP5 DUP5 ADD MSTORE JUMPDEST POP POP POP POP JUMP JUMPDEST PUSH2 0x716 DUP1 PUSH3 0x41B PUSH1 0x0 CODECOPY PUSH1 0x0 RETURN STOP PUSH1 0x80 PUSH1 0x40 MSTORE PUSH1 0x4 CALLDATASIZE LT PUSH2 0x6D JUMPI PUSH1 0x0 CALLDATALOAD PUSH29 0x100000000000000000000000000000000000000000000000000000000 SWAP1 DIV PUSH4 0xFFFFFFFF AND DUP1 PUSH4 0x121B93F EQ PUSH2 0x72 JUMPI DUP1 PUSH4 0xDC96015 EQ PUSH2 0x9B JUMPI DUP1 PUSH4 0x409E2205 EQ PUSH2 0xC6 JUMPI DUP1 PUSH4 0x5DF81330 EQ PUSH2 0x103 JUMPI DUP1 PUSH4 0xCC2EE196 EQ PUSH2 0x140 JUMPI JUMPDEST PUSH1 0x0 DUP1 REVERT JUMPDEST CALLVALUE DUP1 ISZERO PUSH2 0x7E JUMPI PUSH1 0x0 DUP1 REVERT JUMPDEST POP PUSH2 0x99 PUSH1 0x4 DUP1 CALLDATASIZE SUB PUSH2 0x94 SWAP2 SWAP1 DUP2 ADD SWAP1 PUSH2 0x420 JUMP JUMPDEST PUSH2 0x16B JUMP JUMPDEST STOP JUMPDEST CALLVALUE DUP1 ISZERO PUSH2 0xA7 JUMPI PUSH1 0x0 DUP1 REVERT JUMPDEST POP PUSH2 0xB0 PUSH2 0x1ED JUMP JUMPDEST PUSH1 0x40 MLOAD PUSH2 0xBD SWAP2 SWAP1 PUSH2 0x5B0 JUMP JUMPDEST PUSH1 0x40 MLOAD DUP1 SWAP2 SUB SWAP1 RETURN JUMPDEST CALLVALUE DUP1 ISZERO PUSH2 0xD2 JUMPI PUSH1 0x0 DUP1 REVERT JUMPDEST POP PUSH2 0xED PUSH1 0x4 DUP1 CALLDATASIZE SUB PUSH2 0xE8 SWAP2 SWAP1 DUP2 ADD SWAP1 PUSH2 0x420 JUMP JUMPDEST PUSH2 0x245 JUMP JUMPDEST PUSH1 0x40 MLOAD PUSH2 0xFA SWAP2 SWAP1 PUSH2 0x5D2 JUMP JUMPDEST PUSH1 0x40 MLOAD DUP1 SWAP2 SUB SWAP1 RETURN JUMPDEST CALLVALUE DUP1 ISZERO PUSH2 0x10F JUMPI PUSH1 0x0 DUP1 REVERT JUMPDEST POP PUSH2 0x12A PUSH1 0x4 DUP1 CALLDATASIZE SUB PUSH2 0x125 SWAP2 SWAP1 DUP2 ADD SWAP1 PUSH2 0x420 JUMP JUMPDEST PUSH2 0x300 JUMP JUMPDEST PUSH1 0x40 MLOAD PUSH2 0x137 SWAP2 SWAP1 PUSH2 0x614 JUMP JUMPDEST PUSH1 0x40 MLOAD DUP1 SWAP2 SUB SWAP1 RETURN JUMPDEST CALLVALUE DUP1 ISZERO PUSH2 0x14C JUMPI PUSH1 0x0 DUP1 REVERT JUMPDEST POP PUSH2 0x155 PUSH2 0x323 JUMP JUMPDEST PUSH1 0x40 MLOAD PUSH2 0x162 SWAP2 SWAP1 PUSH2 0x58E JUMP JUMPDEST PUSH1 0x40 MLOAD DUP1 SWAP2 SUB SWAP1 RETURN JUMPDEST DUP1 PUSH1 0x0 GT ISZERO DUP1 ISZERO PUSH2 0x180 JUMPI POP PUSH1 0x1 DUP1 SLOAD SWAP1 POP DUP2 LT JUMPDEST ISZERO ISZERO PUSH2 0x1C1 JUMPI PUSH1 0x40 MLOAD PUSH32 0x8C379A000000000000000000000000000000000000000000000000000000000 DUP2 MSTORE PUSH1 0x4 ADD PUSH2 0x1B8 SWAP1 PUSH2 0x5F4 JUMP JUMPDEST PUSH1 0x40 MLOAD DUP1 SWAP2 SUB SWAP1 REVERT JUMPDEST PUSH1 0x0 DUP2 DUP2 SLOAD DUP2 LT ISZERO ISZERO PUSH2 0x1D0 JUMPI INVALID JUMPDEST SWAP1 PUSH1 0x0 MSTORE PUSH1 0x20 PUSH1 0x0 KECCAK256 ADD PUSH1 0x0 DUP2 SLOAD DUP1 SWAP3 SWAP2 SWAP1 PUSH1 0x1 ADD SWAP2 SWAP1 POP SSTORE POP POP JUMP JUMPDEST PUSH1 0x60 PUSH1 0x0 DUP1 SLOAD DUP1 PUSH1 0x20 MUL PUSH1 0x20 ADD PUSH1 0x40 MLOAD SWAP1 DUP2 ADD PUSH1 0x40 MSTORE DUP1 SWAP3 SWAP2 SWAP1 DUP2 DUP2 MSTORE PUSH1 0x20 ADD DUP3 DUP1 SLOAD DUP1 ISZERO PUSH2 0x23B JUMPI PUSH1 0x20 MUL DUP3 ADD SWAP2 SWAP1 PUSH1 0x0 MSTORE PUSH1 0x20 PUSH1 0x0 KECCAK256 SWAP1 JUMPDEST DUP2 SLOAD DUP2 MSTORE PUSH1 0x20 ADD SWAP1 PUSH1 0x1 ADD SWAP1 DUP1 DUP4 GT PUSH2 0x227 JUMPI JUMPDEST POP POP POP POP POP SWAP1 POP SWAP1 JUMP JUMPDEST PUSH1 0x1 DUP2 DUP2 SLOAD DUP2 LT ISZERO ISZERO PUSH2 0x254 JUMPI INVALID JUMPDEST SWAP1 PUSH1 0x0 MSTORE PUSH1 0x20 PUSH1 0x0 KECCAK256 ADD PUSH1 0x0 SWAP2 POP SWAP1 POP DUP1 SLOAD PUSH1 0x1 DUP2 PUSH1 0x1 AND ISZERO PUSH2 0x100 MUL SUB AND PUSH1 0x2 SWAP1 DIV DUP1 PUSH1 0x1F ADD PUSH1 0x20 DUP1 SWAP2 DIV MUL PUSH1 0x20 ADD PUSH1 0x40 MLOAD SWAP1 DUP2 ADD PUSH1 0x40 MSTORE DUP1 SWAP3 SWAP2 SWAP1 DUP2 DUP2 MSTORE PUSH1 0x20 ADD DUP3 DUP1 SLOAD PUSH1 0x1 DUP2 PUSH1 0x1 AND ISZERO PUSH2 0x100 MUL SUB AND PUSH1 0x2 SWAP1 DIV DUP1 ISZERO PUSH2 0x2F8 JUMPI DUP1 PUSH1 0x1F LT PUSH2 0x2CD JUMPI PUSH2 0x100 DUP1 DUP4 SLOAD DIV MUL DUP4 MSTORE SWAP2 PUSH1 0x20 ADD SWAP2 PUSH2 0x2F8 JUMP JUMPDEST DUP3 ADD SWAP2 SWAP1 PUSH1 0x0 MSTORE PUSH1 0x20 PUSH1 0x0 KECCAK256 SWAP1 JUMPDEST DUP2 SLOAD DUP2 MSTORE SWAP1 PUSH1 0x1 ADD SWAP1 PUSH1 0x20 ADD DUP1 DUP4 GT PUSH2 0x2DB JUMPI DUP3 SWAP1 SUB PUSH1 0x1F AND DUP3 ADD SWAP2 JUMPDEST POP POP POP POP POP DUP2 JUMP JUMPDEST PUSH1 0x0 DUP2 DUP2 SLOAD DUP2 LT ISZERO ISZERO PUSH2 0x30F JUMPI INVALID JUMPDEST SWAP1 PUSH1 0x0 MSTORE PUSH1 0x20 PUSH1 0x0 KECCAK256 ADD PUSH1 0x0 SWAP2 POP SWAP1 POP SLOAD DUP2 JUMP JUMPDEST PUSH1 0x60 PUSH1 0x1 DUP1 SLOAD DUP1 PUSH1 0x20 MUL PUSH1 0x20 ADD PUSH1 0x40 MLOAD SWAP1 DUP2 ADD PUSH1 0x40 MSTORE DUP1 SWAP3 SWAP2 SWAP1 DUP2 DUP2 MSTORE PUSH1 0x20 ADD PUSH1 0x0 SWAP1 JUMPDEST DUP3 DUP3 LT ISZERO PUSH2 0x403 JUMPI DUP4 DUP3 SWAP1 PUSH1 0x0 MSTORE PUSH1 0x20 PUSH1 0x0 KECCAK256 ADD DUP1 SLOAD PUSH1 0x1 DUP2 PUSH1 0x1 AND ISZERO PUSH2 0x100 MUL SUB AND PUSH1 0x2 SWAP1 DIV DUP1 PUSH1 0x1F ADD PUSH1 0x20 DUP1 SWAP2 DIV MUL PUSH1 0x20 ADD PUSH1 0x40 MLOAD SWAP1 DUP2 ADD PUSH1 0x40 MSTORE DUP1 SWAP3 SWAP2 SWAP1 DUP2 DUP2 MSTORE PUSH1 0x20 ADD DUP3 DUP1 SLOAD PUSH1 0x1 DUP2 PUSH1 0x1 AND ISZERO PUSH2 0x100 MUL SUB AND PUSH1 0x2 SWAP1 DIV DUP1 ISZERO PUSH2 0x3EF JUMPI DUP1 PUSH1 0x1F LT PUSH2 0x3C4 JUMPI PUSH2 0x100 DUP1 DUP4 SLOAD DIV MUL DUP4 MSTORE SWAP2 PUSH1 0x20 ADD SWAP2 PUSH2 0x3EF JUMP JUMPDEST DUP3 ADD SWAP2 SWAP1 PUSH1 0x0 MSTORE PUSH1 0x20 PUSH1 0x0 KECCAK256 SWAP1 JUMPDEST DUP2 SLOAD DUP2 MSTORE SWAP1 PUSH1 0x1 ADD SWAP1 PUSH1 0x20 ADD DUP1 DUP4 GT PUSH2 0x3D2 JUMPI DUP3 SWAP1 SUB PUSH1 0x1F AND DUP3 ADD SWAP2 JUMPDEST POP POP POP POP POP DUP2 MSTORE PUSH1 0x20 ADD SWAP1 PUSH1 0x1 ADD SWAP1 PUSH2 0x347 JUMP JUMPDEST POP POP POP POP SWAP1 POP SWAP1 JUMP JUMPDEST PUSH1 0x0 PUSH2 0x418 DUP3 CALLDATALOAD PUSH2 0x68E JUMP JUMPDEST SWAP1 POP SWAP3 SWAP2 POP POP JUMP JUMPDEST PUSH1 0x0 PUSH1 0x20 DUP3 DUP5 SUB SLT ISZERO PUSH2 0x432 JUMPI PUSH1 0x0 DUP1 REVERT JUMPDEST PUSH1 0x0 PUSH2 0x440 DUP5 DUP3 DUP6 ADD PUSH2 0x40C JUMP JUMPDEST SWAP2 POP POP SWAP3 SWAP2 POP POP JUMP JUMPDEST PUSH1 0x0 PUSH2 0x454 DUP3 PUSH2 0x649 JUMP JUMPDEST DUP1 DUP5 MSTORE PUSH1 0x20 DUP5 ADD SWAP4 POP DUP4 PUSH1 0x20 DUP3 MUL DUP6 ADD PUSH2 0x46D DUP6 PUSH2 0x62F JUMP JUMPDEST PUSH1 0x0 JUMPDEST DUP5 DUP2 LT ISZERO PUSH2 0x4A6 JUMPI DUP4 DUP4 SUB DUP9 MSTORE PUSH2 0x488 DUP4 DUP4 MLOAD PUSH2 0x512 JUMP JUMPDEST SWAP3 POP PUSH2 0x493 DUP3 PUSH2 0x66A JUMP JUMPDEST SWAP2 POP PUSH1 0x20 DUP9 ADD SWAP8 POP PUSH1 0x1 DUP2 ADD SWAP1 POP PUSH2 0x470 JUMP JUMPDEST POP DUP2 SWAP7 POP DUP7 SWAP5 POP POP POP POP POP SWAP3 SWAP2 POP POP JUMP JUMPDEST PUSH1 0x0 PUSH2 0x4C2 DUP3 PUSH2 0x654 JUMP JUMPDEST DUP1 DUP5 MSTORE PUSH1 0x20 DUP5 ADD SWAP4 POP PUSH2 0x4D4 DUP4 PUSH2 0x63C JUMP JUMPDEST PUSH1 0x0 JUMPDEST DUP3 DUP2 LT ISZERO PUSH2 0x506 JUMPI PUSH2 0x4EA DUP7 DUP4 MLOAD PUSH2 0x57F JUMP JUMPDEST PUSH2 0x4F3 DUP3 PUSH2 0x677 JUMP JUMPDEST SWAP2 POP PUSH1 0x20 DUP7 ADD SWAP6 POP PUSH1 0x1 DUP2 ADD SWAP1 POP PUSH2 0x4D7 JUMP JUMPDEST POP DUP5 SWAP3 POP POP POP SWAP3 SWAP2 POP POP JUMP JUMPDEST PUSH1 0x0 PUSH2 0x51D DUP3 PUSH2 0x65F JUMP JUMPDEST DUP1 DUP5 MSTORE PUSH2 0x531 DUP2 PUSH1 0x20 DUP7 ADD PUSH1 0x20 DUP7 ADD PUSH2 0x698 JUMP JUMPDEST PUSH2 0x53A DUP2 PUSH2 0x6CB JUMP JUMPDEST PUSH1 0x20 DUP6 ADD ADD SWAP2 POP POP SWAP3 SWAP2 POP POP JUMP JUMPDEST PUSH1 0x0 PUSH1 0xE DUP3 MSTORE PUSH32 0x496E76616C6964206F7074696F6E000000000000000000000000000000000000 PUSH1 0x20 DUP4 ADD MSTORE PUSH1 0x40 DUP3 ADD SWAP1 POP SWAP2 SWAP1 POP JUMP JUMPDEST PUSH2 0x588 DUP2 PUSH2 0x684 JUMP JUMPDEST DUP3 MSTORE POP POP JUMP JUMPDEST PUSH1 0x0 PUSH1 0x20 DUP3 ADD SWAP1 POP DUP2 DUP2 SUB PUSH1 0x0 DUP4 ADD MSTORE PUSH2 0x5A8 DUP2 DUP5 PUSH2 0x449 JUMP JUMPDEST SWAP1 POP SWAP3 SWAP2 POP POP JUMP JUMPDEST PUSH1 0x0 PUSH1 0x20 DUP3 ADD SWAP1 POP DUP2 DUP2 SUB PUSH1 0x0 DUP4 ADD MSTORE PUSH2 0x5CA DUP2 DUP5 PUSH2 0x4B7 JUMP JUMPDEST SWAP1 POP SWAP3 SWAP2 POP POP JUMP JUMPDEST PUSH1 0x0 PUSH1 0x20 DUP3 ADD SWAP1 POP DUP2 DUP2 SUB PUSH1 0x0 DUP4 ADD MSTORE PUSH2 0x5EC DUP2 DUP5 PUSH2 0x512 JUMP JUMPDEST SWAP1 POP SWAP3 SWAP2 POP POP JUMP JUMPDEST PUSH1 0x0 PUSH1 0x20 DUP3 ADD SWAP1 POP DUP2 DUP2 SUB PUSH1 0x0 DUP4 ADD MSTORE PUSH2 0x60D DUP2 PUSH2 0x548 JUMP JUMPDEST SWAP1 POP SWAP2 SWAP1 POP JUMP JUMPDEST PUSH1 0x0 PUSH1 0x20 DUP3 ADD SWAP1 POP PUSH2 0x629 PUSH1 0x0 DUP4 ADD DUP5 PUSH2 0x57F JUMP JUMPDEST SWAP3 SWAP2 POP POP JUMP JUMPDEST PUSH1 0x0 PUSH1 0x20 DUP3 ADD SWAP1 POP SWAP2 SWAP1 POP JUMP JUMPDEST PUSH1 0x0 PUSH1 0x20 DUP3 ADD SWAP1 POP SWAP2 SWAP1 POP JUMP JUMPDEST PUSH1 0x0 DUP2 MLOAD SWAP1 POP SWAP2 SWAP1 POP JUMP JUMPDEST PUSH1 0x0 DUP2 MLOAD SWAP1 POP SWAP2 SWAP1 POP JUMP JUMPDEST PUSH1 0x0 DUP2 MLOAD SWAP1 POP SWAP2 SWAP1 POP JUMP JUMPDEST PUSH1 0x0 PUSH1 0x20 DUP3 ADD SWAP1 POP SWAP2 SWAP1 POP JUMP JUMPDEST PUSH1 0x0 PUSH1 0x20 DUP3 ADD SWAP1 POP SWAP2 SWAP1 POP JUMP JUMPDEST PUSH1 0x0 DUP2 SWAP1 POP SWAP2 SWAP1 POP JUMP JUMPDEST PUSH1 0x0 DUP2 SWAP1 POP SWAP2 SWAP1 POP JUMP JUMPDEST PUSH1 0x0 JUMPDEST DUP4 DUP2 LT ISZERO PUSH2 0x6B6 JUMPI DUP1 DUP3 ADD MLOAD DUP2 DUP5 ADD MSTORE PUSH1 0x20 DUP2 ADD SWAP1 POP PUSH2 0x69B JUMP JUMPDEST DUP4 DUP2 GT ISZERO PUSH2 0x6C5 JUMPI PUSH1 0x0 DUP5 DUP5 ADD MSTORE JUMPDEST POP POP POP POP JUMP JUMPDEST PUSH1 0x0 PUSH1 0x1F NOT PUSH1 0x1F DUP4 ADD AND SWAP1 POP SWAP2 SWAP1 POP JUMP STOP LOG2 PUSH6 0x627A7A723058 KECCAK256 PUSH17 0x8B0A108871B3DC7D1031949676DEA6DF72 MSTORE EXTCODECOPY 0xf9 0xb7 ADDRESS 0xca SDIV 0xc9 SWAP13 PUSH28 0x1DDFF3D46C6578706572696D656E74616CF500370000000000000000 "
				},
				"gasEstimates": {
					"creation": {
						"codeDepositCost": "362800",
						"executionCost": "infinite",
						"totalCost": "infinite"
					},
					"external": {
						"getOptions()": "infinite",
						"getVotes()": "infinite",
						"options(uint256)": "infinite",
						"vote(uint256)": "21137",
						"votes(uint256)": "1091"
					}
				},
				"methodIdentifiers": {
					"getOptions()": "cc2ee196",
					"getVotes()": "0dc96015",
					"options(uint256)": "409e2205",
					"vote(uint256)": "0121b93f",
					"votes(uint256)": "5df81330"
				}
			},
			"userdoc": {
				"methods": {}
			}
		}
	}
}